:0400000007EF00F016
:0A0008001B827FED04F0A6EF04F068
:100800000000000E966E000E956E000E926E010EA8
:10081000936E000E8C6E070E8D6E010ED56E0B0E54
:10082000D76EDC0ED66EF294F28AD58EF18CF292EF
:10083000F288F090F086F28E0A0E8C18D8A416D0AA
:10084000000E8C6E19C011F01AC012F0000E146E5A
:10085000060E136E47EC04F01150020DF350010F19
:10086000D96EDA6ADF508D6E194A1A2A0D500E10B1
:10087000D8B4E2D7020E186E450E176EAA0EE82EF7
:10088000FED7172EFCD7182EFAD78C2AD5D7000EF4
:10089000166E12AE06D0116C121ED8B0122A010EBE
:1008A000166E14AE04D0136C141ED8B0142A135054
:1008B0001410D8B418D0010E156E04D0D890133689
:1008C0001436152A14AEFAD71350115C145012586E
:1008D000D8A004D01350115E1450125AD89014327C
:1008E0001332152EF1D71650D8B404D0116C121E45
:1008F000D8B0122A11C011F012C012F01200060076
:10090000F2A40AD00B0ED76EDC0ED66EF29489B22A
:1009100002D0898201D08992F2A20DD0F2920D50BC
:100920000E10D8B408D0000E8C6E070E8D6E000E1F
:100930001A6E000E196EF0A007D0F0900FC08DFF58
:10094000000E0E6E000E0D6E1B9211007A0EF66EEA
:10095000090EF76E000EF86E00EE01F010EE10F0CA
:100960000900F5CFEEFFE550E150FAE11A6A196A85
:100970001B901B92000101EF04F00200060004002E
:0A0980000500010000000100030063
:020000040020DA
:08000000FFFFFFFFFFFFFFFF00
:020000040030CA
:0E00000000091F1EFF8181FF0FC00FE00F409F
:00000001FF
