:0400000007EF00F016
:0A0008001D8201ED04F0B1EF04F0D9
:1008000000000600D9CF17F0DACF18F0F3CF19F0B7
:10081000F4CF1AF0F2A40AD00B0ED76EDC0ED66E0F
:10082000F29489B202D0898201D08992F2A220D0BA
:10083000F2920D500E10D8B41BD08C2A0A0E8C18D0
:10084000D8A404D0000E8C6E1B4A1C2A1BC011F0C9
:100850001CC012F0000E146E060E136E5AEC04F05B
:100860001150020DF350010FD96EDA6ADF508D6E10
:10087000F0A00DD0F0900D500E10D8B408D0000E9E
:100880008C6E070E8D6E000E1C6E000E1B6EF0A29D
:1008900007D0F0920FC08DFF000E0E6E000E0D6E91
:1008A0001AC0F4FF19C0F3FF18C0DAFF17C0D9FF50
:1008B0001D921100000E166E12AE06D0116C121EA3
:1008C000D8B0122A010E166E14AE04D0136C141E8A
:1008D000D8B0142A13501410D8B418D0010E156EC5
:1008E00004D0D89013361436152A14AEFAD7135004
:1008F000115C14501258D8A004D01350115E14503B
:10090000125AD89014321332152EF1D71650D8B48B
:1009100004D0116C121ED8B0122A11C011F012C0EE
:1009200012F01200000E966E000E956E000E926E82
:10093000010E936E000E8C6E070E8D6E830ED56EBB
:100940000B0ED76EDC0ED66EF294F28AF18CF29218
:10095000F288F18AF090F086F188F092F088F28EB9
:10096000FFD7900EF66E090EF76E000EF86E00EED1
:1009700001F010EE10F00900F5CFEEFFE550E15068
:10098000FAE11C6A1B6A1D901D92000192EF04F0AF
:100990000200060004000500010000000100030041
:020000040020DA
:08000000FFFFFFFFFFFFFFFF00
:020000040030CA
:0E000000000C1F1EFF8181FF0FC00FE00F409C
:00000001FF
