:0400000007EF00F016
:0A000800038225ED04F02CEF04F054
:100800000000000E966E000E956E000E926E010EA8
:10081000936E000E8C6E070E8D6E0A0E8C18D8A487
:1008200003D0000E8C6E8D06020E026E450E016E18
:10083000AA0EE82EFED7012EFCD7022EFAD789B2D7
:1008400002D08982EAD78992E8D70600F2A202D0C4
:10085000F2928C2A0392110003900392000101EF9F
:0208600004F0A2
:020000040020DA
:08000000FFFFFFFFFFFFFFFF00
:020000040030CA
:0E00000000091F1EFF8381FF0FC00FE00F409D
:00000001FF
