:0400000007EF00F016
:0A000800018222ED04F035EF04F050
:100800000000000E966E000E956E000E926E010EA8
:10081000936E000E8C6E070E8D6E010ED56E0B0E54
:10082000D76EDC0ED66EF294F28AD58EF18CF292EF
:10083000F288F28E0A0E8C18D8A4FCD7000E8C6EAB
:100840008D06F8D70600F2A40AD00B0ED76EDC0E88
:10085000D66EF29489B202D0898201D08992F2A236
:1008600002D0F2928C2A01921100019001920001B3
:0408700001EF04F0A0
:020000040020DA
:08000000FFFFFFFFFFFFFFFF00
:020000040030CA
:0E00000000091F1EFF8181FF0FC00FE00F409F
:00000001FF
