:0400000007EF00F016
:0A00080003822AED04F031EF04F04A
:100800000000000E966E000E956E000E926E010EA8
:10081000936E000E8C6E070E8D6EF18CF292F28844
:10082000F28E8C2A0A0E8C18D8A403D0000E8C6E7F
:100830008D06020E026E450E016EAA0EE82EFED740
:10084000012EFCD7022EFAD789B202D08982E9D7CD
:100850008992E7D70600F2A202D0F2928C2A039284
:0C086000110003900392000101EF04F06E
:020000040020DA
:08000000FFFFFFFFFFFFFFFF00
:020000040030CA
:0E00000000091F1EFF8181FF0FC00FE00F409F
:00000001FF
