:0400000007EF00F016
:0A000800198272ED04F0A0EF04F07D
:100800000000000E966E000E956E000E926E010EA8
:10081000936E000E8C6E070E8D6E830ED56E0B0ED2
:10082000D76EDC0ED66EF294F28AF18CF292F288D8
:10083000F18AF090F086F188F092F088F28E0A0E3C
:100840008C18D8A4FCD7000E8C6E17C011F018C0FD
:1008500012F0000E146E060E136E3AEC04F01150F6
:10086000020DF350010FD96EDA6ADF508D6E174A10
:10087000182AE5D7000E166E12AE06D0116C121EA5
:10088000D8B0122A010E166E14AE04D0136C141ECA
:10089000D8B0142A13501410D8B418D0010E156E05
:1008A00004D0D89013361436152A14AEFAD7135044
:1008B000115C14501258D8A004D01350115E14507B
:1008C000125AD89014321332152EF1D71650D8B4CC
:1008D00004D0116C121ED8B0122A11C011F012C02F
:1008E00012F012000600F2A40AD00B0ED76EDC0E36
:1008F000D66EF29489B202D0898201D08992F2A296
:100900000DD0F2920D500E10D8B408D0000E8C6E9F
:10091000070E8D6E000E186E000E176EF0A007D039
:10092000F0900FC08DFF000E0E6E000E0D6EF0A247
:1009300005D0F0920D500E10D8A48C2A19921100F7
:100940006E0EF66E090EF76E000EF86E00EE01F0F8
:1009500010EE10F00900F5CFEEFFE550E150FAE19E
:10096000186A176A19901992000101EF04F0020049
:0E097000060004000500010000000100030065
:020000040020DA
:08000000FFFFFFFFFFFFFFFF00
:020000040030CA
:0E000000000C1F1EFF8181FF0FC00FE00F409C
:00000001FF
