:0400000007EF00F016
:0A0008004B824CED05F0D2EF0AF038
:100800000001000A006400E80310270F091C080219
:1008100007121E040E0A0A1F1B1F0003030207060D
:100820000E0A1304110E04040A11000A0A0A001128
:10083000110E004375656E74612066696E616C69A6
:100840007A6164610056616C6F7220646520414476
:1008500043203D202575005069657A617320612031
:10086000636F6E7461723A004C61626F7261746F93
:1008700072696F20303400456D657267656E63691B
:100880006120004D6963726F7320554E414C0050DA
:100890004943313846343535300046616C74616EF9
:1008A00074653A004F626A657469766F3A00506108
:1008B0007261646120646500413A6F6B20423A00C6
:0D08C000413A4F4B00233D5800433D0000DE
:1008CE00010EC26E880EC06E000E966E000E956EF4
:1008DE00010E926E000E946E000E8C6E070E8D6ED3
:1008EE00898A240EAC6E800EAB6E080EB86E190E91
:1008FE00AF6EF00E936E000E8A6EF19E210E256E77
:10090E00760EE82EFED7252EFCD700D00B0ED76E16
:10091E00DC0ED66E010ED56EF294F28AD58EF29062
:10092E00F286F28EC150F00B0E09C16EF4EC09F096
:10093E00A0EC0DF02B0E186E000E07EC06F0230E39
:10094E00186E010E07EC06F01B0E186E020E07EC69
:10095E0006F0130E186E030E07EC06F00B0E186E53
:10096E00040E07EC06F0A7EC0DF0B5EC0DF0010E41
:10097E00166E010E46EC08F0680E186E18EC0CF0B0
:10098E00010E166E020E46EC08F08F0E186E18EC65
:10099E000CF00C0E166E020E46EC08F099EC0DF0F3
:1009AE00410E256EEE0EE82EFED7252EFCD700D07A
:1009BE00AEEC0DF0010E0001886FB5EC0DF0010EDE
:1009CE00166E010E46EC08F0830E186E18EC0CF045
:1009DE00010E166E020E46EC08F0000E56EC0CF0F0
:1009EE00070E166E020E46EC08F0010E56EC0CF0D9
:1009FE0000018851020F166E020E46EC08F0020E30
:100A0E0056EC0CF0020E266E450E256EAA0EE82E42
:100A1E00FED7252EFCD7262EFAD70001882B050EE1
:100A2E008865CBD7B5EC0DF04FEC0BF0000E38EC23
:100A3E000DF014C027F015C028F06C0E206E450E78
:100A4E00216E27C022F028C023F0C1EC06F0270E3D
:100A5E00275C020E2858D8A002D08B8401D08B942C
:100A6E0080A403D0256A252A01D0256A25500001CD
:100A7E00866F876B37503810D8B4D8D78605871154
:100A8E00D8A4D4D74AEC07F0D1D70600D9CF0CF0B2
:100A9E00DACF0DF0F3CF0EF0F4CF0FF0F6CF10F05B
:100AAE00F7CF11F0F8CF12F0F5CF13F0F2A088D0F7
:100ABE0049504A10D8B484D0F00E8118D8B477D0EB
:100ACE00000E3D6EFE0E8A6E81B804D0310EA2EC81
:100ADE000AF06BD081BA04D0320EA2EC0AF065D0C7
:100AEE0081BC04D0330EA2EC0AF05FD081BE08D0D8
:100AFE00020E47184810D8B403D024EC0DF055D090
:100B0E00FD0E8A6E81B804D0340EA2EC0AF04DD0E0
:100B1E0081BA04D0350EA2EC0AF047D081BC04D0C5
:100B2E00360EA2EC0AF041D081BE07D04704481021
:100B3E00D8A403D028EC0BF038D0FB0E8A6E81B807
:100B4E0004D0370EA2EC0AF030D081BA04D0380EA1
:100B5E00A2EC0AF02AD081BC04D0390EA2EC0AF025
:100B6E0024D081BE08D0020E47184810D8A403D056
:100B7E00C4EC0CF01AD0F70E8A6E81B803D0D8EC04
:100B8E000DF013D081BA04D0300EA2EC0AF00DD0C5
:100B9E0081BC08D0020E47184810D8A403D0DEEC52
:100BAE000DF003D081AEF8EC0BF0F00E8A6E410E14
:100BBE000B6EEE0EE82EFED70B2EFCD700D0F29069
:100BCE00F2A40CD0F2940B0ED76EDC0ED66E89B258
:100BDE0002D0898201D08992DFEC0CF013C0F5FFB0
:100BEE0012C0F8FF11C0F7FF10C0F6FF0FC0F4FFE0
:100BFE000EC0F3FF0DC0DAFF0CC0D9FF4B921100EF
:100C0E001A6E9ED0000E1B6E18501B24196E19C042
:100C1E00F6FF080EF76E0800F55056EC0CF01B2A86
:100C2E00070E1B64F1D71200080E1C6E18501C2400
:100C3E00196EF80E192619C0F6FF080EF76E080089
:100C4E00F55056EC0CF01C2A0F0E1C64EFD7120058
:100C5E00100E1D6E18501D24196EF00E192619C097
:100C6E00F6FF080EF76E0800F55056EC0CF01D2A34
:100C7E00170E1D64EFD71200180E1E6E18501E248C
:100C8E00196EE80E192619C0F6FF080EF76E080049
:100C9E00F55056EC0CF01E2A1F0E1E64EFD71200F4
:100CAE00200E1F6E18501F24196EE00E192619C043
:100CBE00F6FF080EF76E0800F55056EC0CF01F2AE2
:100CCE00270E1F64EFD71200280E206E1850202416
:100CDE00196ED80E192619C0F6FF080EF76E080009
:100CEE00F55056EC0CF0202A2F0E2064EFD7120090
:100CFE00300E216E18502124196ED00E192619C0EF
:100D0E00F6FF080EF76E0800F55056EC0CF0212A8F
:100D1E00370E2164EFD71200380E226E185022249F
:100D2E00196EC80E192619C0F6FF080EF76E0800C8
:100D3E00F55056EC0CF0222A3F0E2264EFD712002B
:100D4E001A50000AD8B45ED7010AD8B46DD7030A78
:100D5E00D8B47ED7010AD8B48FD7070AD8B4A0D793
:100D6E00010AD8B4B1D7030AD8B4C2D7010AD8A49D
:100D7E001200D2D7220E0001816F73D0250E851975
:100D8E00D8B407D02050D96EDA6A85C0DFFF202A8A
:100D9E0068D0000E806F03D0C00E801312D0212AAF
:100DAE002104246E24C0F6FF080EF76E0800F5CF5E
:100DBE0085F08551000AD8B461D0750AD8B4ECD745
:100DCE0050D08151D96EDA6ADECF82F0DDCF83F05A
:100DDE00020E8127010E856F8551020DF350010F12
:100DEE00246E24C0F6FF080EF76E0900F550825DE2
:100DFE000900F5508359D8A005D0852B050E85190D
:100E0E00D8A4EAD785C084F028D08451020DF350BF
:100E1E00010F246E24C0F6FF080EF76E0900F5CF01
:100E2E0016F00A00F5CF17F082C014F083C015F04B
:100E3E00FFEC0AF014C01BF015C01CF0000E1E6E65
:100E4E000A0E1D6E95EC0BF01B50300F856F205067
:100E5E00D96EDA6A85C0DFFF202A84078429D8A4D8
:100E6E00D4D7212A2104246E24C0F6FF080EF76E73
:100E7E000800F5CF85F08551D8A480D72050D96EC3
:100E8E00DA6ADF6A12003BC014F03CC015F0000EA7
:100E9E00176E0A0E166E4BEC0DF039501424356E8B
:100EAE003A501520366E334A342A3350355C1C6E58
:100EBE00345036581D6E010E1C24316E000E1D204E
:100ECE00326E31C014F032C015F0000E176E0A0EDD
:100EDE00166E32EC0AF0300E14242F6E000E152012
:100EEE00306E31C014F032C015F0000E176E0A0EBF
:100EFE00166E70EC09F0300E14242D6E000E1520B7
:100F0E002E6EFF0E3324146EFF0E3420156E000E5F
:100F1E00176E0A0E166E32EC0AF014C02BF015C0C6
:100F2E002CF0FF0E3324146EFF0E3420156E000EBF
:100F3E00176E0A0E166E70EC09F014C029F015C06B
:100F4E002AF02BC08CFF2950020DF350600FD96E82
:100F5E00DA6ADF508D6EE6EC08F0020E1D6E450E5D
:100F6E001C6EAA0EE82EFED71C2EFCD71D2EFAD70D
:100F7E0031503210D8A41200B6EC0BF08EEC0CF0FF
:100F8E0012003BC001F03CC002F0000E046E0A0ECF
:100F9E00036E5EEC0DF039500124356E3A5002208E
:100FAE00366E334A342A3350355C096E3450365817
:100FBE000A6E010E0924316E000E0A20326E31C007
:100FCE0001F032C002F0000E046E0A0E036E6AECDF
:100FDE000AF0300E01242F6E000E0220306E31C04A
:100FEE0001F032C002F0000E046E0A0E036EB2EC77
:100FFE0009F0300E01242D6E000E02202E6EFF0E13
:10100E003324016EFF0E3420026E000E046E0A0EA3
:10101E00036E6AEC0AF001C02BF002C02CF0FF0E3A
:10102E003324016EFF0E3420026E000E046E0A0E83
:10103E00036EB2EC09F001C029F002C02AF02BC0F9
:10104E008CFF2950020DF350600FD96EDA6ADF5013
:10105E008D6E2BEC09F0020E0A6E450E096EAA0E6D
:10106E00E82EFED7092EFCD70A2EFAD731503210B1
:10107E00D8A41200D7EC0BF0A9EC0CF01200176EEE
:10108E001704D8A410D016507F0F1A6E1A380F0BF3
:10109E00186E1A500F0B196E185081EC0DF0195076
:1010AE0081EC0DF01200020E1718D8A410D01650B5
:1010BE00BF0F1A6E1A380F0B186E1A500F0B196ECF
:1010CE00185081EC0DF0195081EC0DF01200030E4A
:1010DE001718D8A410D01650930F1A6E1A380F0B7B
:1010EE00186E1A500F0B196E185081EC0DF0195026
:1010FE0081EC0DF01200040E1718D8A41200165031
:10110E00D30F1A6E1A380F0B186E1A500F0B196E6A
:10111E00185081EC0DF0195081EC0DF01200046E98
:10112E000404D8A410D003507F0F076E07380F0B9E
:10113E00056E07500F0B066E05508DEC0DF0065028
:10114E008DEC0DF01200020E0418D8A410D003502E
:10115E00BF0F076E07380F0B056E07500F0B066E8D
:10116E0005508DEC0DF006508DEC0DF01200030EB7
:10117E000418D8A410D00350930F076E07380F0B26
:10118E00056E07500F0B066E05508DEC0DF00650D8
:10119E008DEC0DF01200040E0418D8A412000350AA
:1011AE00D30F076E07380F0B056E07500F0B066E29
:1011BE0005508DEC0DF006508DEC0DF01200000E6A
:1011CE00486E020E476E000E386E010E376EB5EC8D
:1011DE000DF0AEEC0DF0010E166E010E46EC08F0A1
:1011EE009A0E186E18EC0CF02D5056EC0CF02F5089
:1011FE0056EC0CF00E0E166E010E46EC08F0C90EF3
:10120E00186E18EC0CF0040E56EC0CF0010E166E67
:10121E00020E46EC08F0A40E186E18EC0CF03B50C3
:10122E00300F56EC0CF03950300F56EC0CF00E0E11
:10123E00166E020E46EC08F0C50E186E18EC0CF089
:10124E00030E56EC0CF01200000E486E020E476EA6
:10125E00000E386E010E376ECAEC0DF0C3EC0DF0B9
:10126E00010E036E010E96EC08F09A0E056E37EC29
:10127E000CF02D5072EC0CF02F5072EC0CF00E0E98
:10128E00036E010E96EC08F0C90E056E37EC0CF0ED
:10129E00040E72EC0CF0010E036E020E96EC08F0CA
:1012AE00A40E056E37EC0CF03B50300F72EC0CF0C8
:1012BE003950300F72EC0CF00E0E036E020E96ECDF
:1012CE0008F0C50E056E37EC0CF0030E72EC0CF048
:1012DE001200000E196E17AE06D0166C171ED8B07F
:1012EE00172A010E196E15AE06D0146C151ED8B045
:1012FE00152A010E191A000E1B6E000E1A6E1650CC
:10130E001710D8B41CD0010E186E04D0D890163613
:10131E001736182A17AEFAD7D8901A361B3616502B
:10132E00145C17501558D8A005D01650145E1750DF
:10133E00155A1A80D89017321632182EEDD719502A
:10134E00D8B404D01A6C1B1ED8B01B2A1AC014F0C5
:10135E001BC015F01200000E066E04AE06D0036C14
:10136E00041ED8B0042A010E066E02AE06D0016C21
:10137E00021ED8B0022A010E061A000E086E000ECA
:10138E00076E03500410D8B41CD0010E056E04D0A5
:10139E00D89003360436052A04AEFAD7D89007360D
:1013AE0008360350015C04500258D8A005D00350F3
:1013BE00015E0450025A0780D89004320332052E83
:1013CE00EDD70650D8B404D0076C081ED8B0082A42
:1013DE0007C001F008C002F01200929692989598FC
:1013EE00959A959C959E000EF8EC0CF0070E166ED5
:1013FE007D0EE82EFED7162EFCD70000030E81ECD4
:10140E000DF0FA0E00D0E82EFDD7030E81EC0DF094
:10141E00040E166E910EE82EFED7162EFCD7000087
:10142E00030E81EC0DF0020E81EC0DF0020E81EC3C
:10143E000DF0080E81EC0DF0000E81EC0DF00C0E8F
:10144E0081EC0DF0000E81EC0DF0060E81EC0DF02E
:10145E00B5EC0DF01200000E196E15AE06D0146C20
:10146E00151ED8B0152A010E196E17AE04D0166CC3
:10147E00171ED8B0172A16501710D8B418D0010E50
:10148E00186E04D0D89016361736182A17AEFAD71B
:10149E001650145C17501558D8A004D01650145E70
:1014AE001750155AD89017321632182EF1D71950E8
:1014BE00D8B404D0146C151ED8B0152A14C014F06C
:1014CE0015C015F01200000E066E02AE06D0016CAD
:1014DE00021ED8B0022A010E066E04AE04D0036CB2
:1014EE00041ED8B0042A03500410D8B418D0010E2C
:1014FE00056E04D0D89003360436052A04AEFAD70A
:10150E000350015C04500258D8A004D00350015E71
:10151E000450025AD89004320332052EF1D70650E9
:10152E00D8B404D0016C021ED8B0022A01C001F05A
:10153E0002C002F01200066E43044410D8A41AD062
:10154E0006C005F00F0E051605503B6E3C6A3CBEFC
:10155E000AD03C5004E1060E3B5CD8A004D0000E2D
:10156E003C6E050E3B6E3B50300F72EC0CF0434A56
:10157E00442A1200020E43184410D8A4120006C0CA
:10158E0005F00F0E05160550396E3A6A3950300FB8
:10159E0072EC0CF0ECD7E20EF66E1A0EF76E000E31
:1015AE00F86E00EE60F010EE20F00900F5CFEEFFC1
:1015BE00E550E150FAE1A20EF66E1B0EF76E000E2C
:1015CE00F86E00EE3EF010EE0DF00900F5CFEEFFD6
:1015DE00E550E150FAE100EE27F0170EEE6AE8064C
:1015EE00FDE14B904B92000EF86E000167EF04F098
:1015FE00000E1A6E000E196E16501710D8B41CD0AD
:10160E00010E186E04D0D89016361736182A17AE5B
:10161E00FAD7D89019361A361650145C175015583A
:10162E00D8A005D01650145E1750155A1980D890B0
:10163E0017321632182EEDD719C014F01AC015F045
:10164E00120043044410D8B412004304036E020E79
:10165E0096EC08F0200E72EC0CF04304036E020EB2
:10166E0096EC08F04306D8A0440643044410D8A4D0
:10167E0005D0000E3C6E000E3B6E1200020E43189B
:10168E004410D8A41200000E3A6E000E396E1200ED
:10169E00000E486E010E476EB5EC0DF0010E166E83
:1016AE00010E46EC08F0570E186E18EC0CF0090EF1
:1016BE00166E020E46EC08F0B80E186E18EC0CF012
:1016CE007F0E56EC0CF0010E166E020E46EC08F074
:1016DE0099EC0DF01200000E486E010E476ECAEC2A
:1016EE000DF0010E036E010E96EC08F0570E056E0E
:1016FE0037EC0CF0090E036E020E96EC08F0B80EE5
:10170E00056E37EC0CF07F0E72EC0CF0010E036ED2
:10171E00020E96EC08F0BCEC0DF012001D501E10DF
:10172E00D8B418D0010E1F6E04D0D8901D361E36B8
:10173E001F2A1EAEFAD71D501B5C1E501C58D8A077
:10174E0004D01D501B5E1E501C5AD8901E321D32E6
:10175E001F2EF1D71BC01BF01CC01CF01200000E78
:10176E003A6E000E396E000E3A6E000E396E300E65
:10177E0039242F6E000E3A20306E300E39242D6E25
:10178E00000E3A202E6E000E8C6E60C08DFF000E85
:10179E00346E000E336E000E446E010E436E120058
:1017AE00000E3A6E000E396E000E3A6E000E396E55
:1017BE00300E39242F6E000E3A20306E300E392442
:1017CE002D6E000E3A202E6E000E8C6E60C08DFFB8
:1017DE00000E346E000E336E000E446E010E436E1C
:1017EE001200CAEC0DF0C3EC0DF0010E036E010EEB
:1017FE0096EC08F0AE0E056E37EC0CF0010E036E93
:10180E00020E96EC08F0770E056E37EC0CF0030E18
:10181E0072EC0CF0000E4A6E000E496E41C08DFF48
:10182E001200000E1B6E000E1A6E0DD018501A24E8
:10183E00196E19C0F6FF080EF76E0800F55056EC3B
:10184E000CF01A4A1B2A18501A24196E19C0F6FFEA
:10185E00080EF76E0800F5500009D8B41200E6D74E
:10186E00000E086E000E076E0DD005500724066E92
:10187E0006C0F6FF080EF76E0800F55072EC0CF07D
:10188E00074A082A05500724066E06C0F6FF080E02
:10189E00F76E0800F5500009D8B41200E6D7176E9F
:1018AE0017500F0B156E1750F00B166E89861638E3
:1018BE000F0BF8EC0CF08988030EE82EFED7000013
:1018CE0089981550F8EC0CF08988030EE82EFED797
:1018DE00000089981200046E04500F0B026E045023
:1018EE00F00B036E898603380F0B0EEC0DF0898812
:1018FE00030EE82EFED70000899802500EEC0DF074
:10190E008988030EE82EFED7000089981200000E7B
:10191E00486E030E476EB5EC0DF0AEEC0DF0010EF9
:10192E00166E010E46EC08F0330E186E18EC0CF025
:10193E000D0E166E020E46EC08F0C00E186E18EC68
:10194E000CF01200000E486E030E476ECAEC0DF03E
:10195E00C3EC0DF0010E036E010E96EC08F0330E83
:10196E00056E37EC0CF00D0E036E020E96EC08F0C1
:10197E00C00E056E37EC0CF01200300E39242F6EAF
:10198E00000E3A20306E300E3B242D6E000E3C20A1
:10199E002E6E000E8C6E60C08DFF000E346E000E2B
:1019AE00336E000E446E010E436E2BEC09F01200E6
:1019BE00000E026E000E016E0AD0ACA2FED70150D0
:1019CE006C0FD96EDA6ADF50AD6E014A022A0150F1
:1019DE006C0FD96EDA6ADF50D8A4EFD70A0EAD6E4F
:1019EE001200146E14A002D08C8801D08C9814A210
:1019FE0002D08C8A01D08C9A14A402D08C8C01D087
:101A0E008C9C14A602D08C8E12008C9E1200016E3D
:101A1E0001A002D08C8801D08C9801A202D08C8AB1
:101A2E0001D08C9A01A402D08C8C01D08C9C01A682
:101A3E0002D08C8E12008C9E120047044810D8A43F
:101A4E0003D0C8EC07F01200020E47184810D8B4A5
:101A5E001200030E47184810D8A4120072EC0BF0B7
:101A6E001200176E17C016F0D8901636D89016368C
:101A7E00C250030B1610C26EC282C2B2FED7C3CFC3
:101A8E0014F0C4CF15F0120014501602F3CF18F054
:101A9E00F4CF19F014501702F350192615501602F0
:101AAE00F350192618C014F019C015F01200015089
:101ABE000302F3CF05F0F4CF06F001500402F35009
:101ACE00062602500302F350062605C001F006C09A
:101ADE0002F01200020006000400050001000000E2
:101AEE0076616C6F72206465204144433D000000B6
:101AFE0000000000156E89961550F8EC0CF08988E0
:101B0E00C80E00D0E82EFDD789981200026E899675
:101B1E0002500EEC0DF08988C80E00D0E82EFDD7CD
:101B2E0089981200000E81EC0DF00F0E81EC0DF075
:101B3E001200040E81EC0DF0000E81EC0DF012007F
:101B4E00000E81EC0DF0020E81EC0DF01200000E75
:101B5E0081EC0DF00C0E81EC0DF01200000E81ECFC
:101B6E000DF0010E81EC0DF01200000E8DEC0DF05B
:101B7E000F0E8DEC0DF01200000E8DEC0DF00C0E14
:101B8E008DEC0DF01200000E8DEC0DF0010E8DECB3
:101B9E000DF012008FC24103000100FF030200018D
:011BAE000036
:101BB00089BA02D0898A1200899A1200D7EC0BF0F8
:061BC00072EC0BF01200B4
:020000040020DA
:08000000FFFFFFFFFFFFFFFF00
:020000040030CA
:0E00000000091F1EFF8181FF0FC00FE00F409F
:00000001FF
