:0400000007EF00F016
:0A0008004F826EED04F007EF0FF0D9
:100800000001000A006400E80310270F091C080219
:1008100007121E040E0A0A1F1B1F0003030207060D
:100820000E0A1304110E04040A11000A0A0A001128
:10083000110E0044697374616E636961203D202567
:100840007520636D200A50574D203D2025752025C9
:1008500063200A004375656E74612066696E616C81
:10086000697A616461005069657A6173206120630F
:100870006F6E7461723A004C61626F7261746F7274
:10088000696F20303400456D657267656E6369611C
:1008900020004D6963726F7320554E414C005049E2
:1008A00043313846343535300046616C74616E74BE
:1008B000653A004F626A657469766F3A00506172FA
:1008C00061646120646500413A6F6B20423A0041E7
:1008D0003A4F4B00233D5800433D00000600D9CF5E
:1008E0002FF0DACF30F0F3CF31F0F4CF32F0F6CF93
:1008F00033F0F7CF34F0F8CF35F0F5CF36F0F2A083
:1009000090D045504610D8B48CD0F00E8118D8B491
:100910007BD0000E4E6EFE0E8A6E81B804D0310E72
:100920003AEC0FF06FD081BA04D0320E3AEC0FF0EF
:1009300069D081BC04D0330E3AEC0FF063D081BE95
:1009400009D0020E00016C196D11D8B403D0BDECB2
:1009500011F058D0FD0E8A6E81B804D0340E3AECF6
:100960000FF050D081BA04D0350E3AEC0FF04AD0D7
:1009700081BC04D0360E3AEC0FF044D081BE08D0D2
:1009800000016C056D11D8A403D095EC0FF03AD09E
:10099000FB0E8A6E81B804D0370E3AEC0FF032D0DD
:1009A00081BA04D0380E3AEC0FF02CD081BC04D0C0
:1009B000390E3AEC0FF026D081BE09D0020E0001AC
:1009C0006C196D11D8A403D045EC11F01BD0F70EB3
:1009D0008A6E81B803D07FEC12F014D081BA04D0B3
:1009E000300E3AEC0FF00ED081BC09D0020E00019F
:1009F0006C196D11D8A403D085EC12F003D081AE30
:100A0000E6EC0FF0F00E8A6E030E2E6E080E2D6EC1
:100A1000770EE82EFED72D2EFCD72E2EFAD700000B
:100A2000F290F2A42DD0F2940B0ED76EDC0ED66E9F
:100A300089B202D0898201D0899260EC11F04C0415
:100A4000D8A402D04B2A02D0000E4B6E4B50D8B423
:100A500002D0000E4C6E000E0AEC12F001C047F0FE
:100A600002C048F047C009F048C00AF01DEC12F07F
:100A700009C027F00AC028F00BC029F082EC0AF068
:100A80009EAAD6D09EAAFED7AECF4DF0700E4D18BE
:100A9000D8B404D0500E4D18D8A403D0E6EC0FF013
:100AA000C7D045504610D8B4C3D0650E4D18D8B441
:100AB00004D0450E4D18D8A404D0000E406E010E8F
:100AC0000BD0610E4D18D8B404D0410E4D18D8A4E7
:100AD00005D0000E406E000E3F6EAAD0720E4D186B
:100AE000D8B404D0520E4D18D8A409D0020E00017B
:100AF0006C196D11D8A403D045EC11F099D07A0E81
:100B00004D18D8B404D05A0E4D18D8A40FD0000EEA
:100B1000376E000E386E000E396E000E0001AE6F9B
:100B2000000EAF6F000EB06F000E72D0780E4D1831
:100B3000D8B404D0580E4D18D8A40FD0000E376E7C
:100B4000000E386E000E396E000E0001AE6FA00E62
:100B5000AF6F410EB06F320E5BD0630E4D18D8B43C
:100B600004D0430E4D18D8A40FD0000E376E000EDF
:100B7000386E000E396E000E0001AE6F200EAF6FA2
:100B8000420EB06F640E44D0760E4D18D8B404D027
:100B9000560E4D18D8A40FD0000E376E000E386ECA
:100BA000000E396E000E0001AE6F700EAF6F420E78
:100BB000B06F960E2DD0620E4D18D8B404D0420EF0
:100BC0004D18D8A40FD0000E376E000E386E000EF0
:100BD000396E000E0001AE6FA00EAF6F420EB06F07
:100BE000C80E16D06E0E4D18D8B404D04E0E4D1847
:100BF000D8A410D0000E376E000E386E000E396E7D
:100C0000000E0001AE6FC80EAF6F420EB06FFA0E4D
:100C1000BE6E0ED06D0E4D18D8B404D04D0E4D18CA
:100C2000D8A406D0000E376E800E386E3F0E396E97
:100C300036C0F5FF35C0F8FF34C0F7FF33C0F6FF0C
:100C400032C0F4FF31C0F3FF30C0DAFF2FC0D9FF4C
:100C50004F921100700ED36E030E0001AA6F970E13
:100C6000E82EFED7AA2FFCD700D0010EC26E880E48
:100C7000C06E000E966E000E956E010E926E020E04
:100C8000946E000E8C6E070E8D6E898A240EAC6EEB
:100C9000900EAB6E080EB86ECF0EAF6EF00E936E68
:100CA000000E8A6EF19E020E0001AB6F040EAA6F59
:100CB000BA0EE82EFED7AA2FFCD7AB2FFAD700002A
:100CC0000B0ED76EDC0ED66E040ED56EF294F28A41
:100CD000D58EF290F286F28EC150F00B0E09C16EE5
:100CE000F90ECB6E7D0EBE6E010ECA6E0C0EBD6E81
:100CF000900ECD6E000ECC6ECA8454EC0DF04EEC0E
:100D000012F02B0E0001906F000E3FEC07F0230E47
:100D1000906F010E3FEC07F01B0E906F020E3FEC40
:100D200007F0130E906F030E3FEC07F00B0E906F61
:100D3000040E3FEC07F055EC12F063EC12F0010EDC
:100D400000018F6F010E17EC0CF0770E0001906F11
:100D500092EC10F0010E8F6F020E17EC0CF09E0E4D
:100D60000001906F92EC10F00C0E8F6F020E17ECDA
:100D70000CF047EC12F0030E0001AB6F080EAA6FE7
:100D8000770EE82EFED7AA2FFCD7AB2FFAD75CEC54
:100D900012F0010E0001AD6F63EC12F0010E0001C4
:100DA0008F6F010E17EC0CF0920E0001906F92EC19
:100DB00010F0010E8F6F020E17EC0CF0000EB2EC6B
:100DC00010F0070E00018F6F020E17EC0CF0010EF1
:100DD000B2EC10F00001AD51020F8F6F020E17EC54
:100DE0000CF0020EB2EC10F00B0E0001AB6F260EF1
:100DF000AA6F5D0EE82EFED7AA2FFCD7AB2FFAD72D
:100E000000D00001AD2B050EAD65C6D763EC12F026
:100E1000BEEC0FF01CEC0EF00001AC6F6E0E9B6F81
:100E2000330E9C6FACC09DF09E6BAEC08CF0AFC01B
:100E30008DF0B0C08EF0EDEC0AF08CC09FF08DC04C
:100E4000A0F0000EA26F250EA16F02EC08F0020EBA
:100E50006C196D11D8A405D0090EAC6102D095ECC7
:100E600008F01F0E0001AB6F710EAA6F1E0EE82E68
:100E7000FED7AA2FFCD7AB2FFAD70000CBD7926FA3
:100E8000A6D0000E936F90519325916F91C0F6FFFD
:100E9000080EF76E0800F550B2EC10F00001932B2D
:100EA000070E9365F0D71200080E946F90519425A9
:100EB000916FF80E912791C0F6FF080EF76E0800AB
:100EC000F550B2EC10F00001942B0F0E9465EED7A4
:100ED0001200100E956F90519525916FF00E91278D
:100EE00091C0F6FF080EF76E0800F550B2EC10F056
:100EF0000001952B170E9565EED71200180E966F10
:100F000090519625916FE80E912791C0F6FF080E3B
:100F1000F76E0800F550B2EC10F00001962B1F0E92
:100F20009665EED71200200E976F90519725916F1E
:100F3000E00E912791C0F6FF080EF76E0800F550FD
:100F4000B2EC10F00001972B270E9765EED7120038
:100F5000280E986F90519825916FD80E912791C0C7
:100F6000F6FF080EF76E0800F550B2EC10F0000125
:100F7000982B2F0E9865EED71200300E996F905176
:100F80009925916FD00E912791C0F6FF080EF76E4C
:100F90000800F550B2EC10F00001992B370E99655E
:100FA000EED71200380E9A6F90519A25916FC80EA5
:100FB000912791C0F6FF080EF76E0800F550B2ECCD
:100FC00010F000019A2B3F0E9A65EED71200000137
:100FD0009251000AD8B455D7010AD8B465D7030A8C
:100FE000D8B477D7010AD8B489D7070AD8B49BD721
:100FF000010AD8B4ADD7030AD8B4BFD7010AD8A420
:101000001200D0D79D0EA86F7ED0250EA919D8B496
:1010100007D09B51D96EDA6AA9C0DFFF9B2B73D032
:10102000000EA46F0BD0A851D96EDA6ADF50A96FF9
:10103000020EA827EED7C00EA41315D09C2B9C053A
:10104000A36FA3C0F6FF080EF76E0800F5CFA9F056
:10105000A951000AD8B464D0630AD8B4E4D7160AF8
:10106000D8B4E9D7D6D7A851D96EDA6ADECFA5F0C1
:10107000DDCFA6F0020EA827010EA96FA951020D1F
:10108000F350010FA36FA3C0F6FF080EF76E09001F
:10109000F550A55D0900F550A659D8A005D0A92B9B
:1010A000050EA919D8A4EAD7A9C0A7F028D0A7513E
:1010B000020DF350010FA36FA3C0F6FF080EF76EE9
:1010C0000900F5CF8EF00A00F5CF8FF0A5C08CF0A7
:1010D000A6C08DF06CEC0FF08CC093F08DC094F036
:1010E000000E966F0A0E956F2FEC10F09351300F93
:1010F000A96F9B51D96EDA6AA9C0DFFF9B2BA707A6
:10110000A729D8A4D4D79C2B9C05A36FA3C0F6FF16
:10111000080EF76E0800F5CFA9F0A951D8A475D72D
:101120009B51D96EDA6ADF6A1200C1C08CF0C2C06E
:101130008DF0000E8F6F0A0E8E6FE4EC11F0BF5130
:101140008C25BD6FC0518D21BE6FBB4BBC2BBB51DD
:10115000BD5D946FBC51BE59956F010E9425B96F5A
:10116000000E9521BA6FB9C08CF0BAC08DF0000E98
:101170008F6F0A0E8E6F97EC0EF0300E8C25B76FC6
:10118000000E8D21B86FB9C08CF0BAC08DF0000E82
:101190008F6F0A0E8E6F98EC0DF0300E8C25B56FA8
:1011A000000E8D21B66FFF0EBB258C6FFF0EBC218C
:1011B0008D6F000E8F6F0A0E8E6F97EC0EF08CC045
:1011C000B3F08DC0B4F0FF0EBB258C6FFF0EBC21B9
:1011D0008D6F000E8F6F0A0E8E6F98EC0DF08CC025
:1011E000B1F08DC0B2F0B3C08CFFB151020DF3501D
:1011F000600FD96EDA6ADF508D6EBCEC0CF00B0E0E
:101200000001956F260E946F5D0EE82EFED7942F89
:10121000FCD7952FFAD700D00001B951BA11D8A444
:10122000120050EC10F0F0EC10F01200C1C001F010
:10123000C2C002F0000E046E0A0E036EF7EC11F04D
:10124000BF510124BD6FC0510220BE6FBB4BBC2BF0
:10125000BB51BD5D096EBC51BE590A6E010E092419
:10126000B96F000E0A20BA6FB9C001F0BAC002F01F
:10127000000E046E0A0E036ECFEC0EF0300E012449
:10128000B76F000E0220B86FB9C001F0BAC002F00B
:10129000000E046E0A0E036EDAEC0DF0300E01241F
:1012A000B56F000E0220B66FFF0EBB25016EFF0E5C
:1012B000BC21026E000E046E0A0E036ECFEC0EF01F
:1012C00001C0B3F002C0B4F0FF0EBB25016EFF0EEB
:1012D000BC21026E000E046E0A0E036EDAEC0DF0F5
:1012E00001C0B1F002C0B2F0B3C08CFFB151020D29
:1012F000F350600FD96EDA6ADF508D6E0BEC0DF093
:101300000B0E0A6E260E096E5E0EE82EFED7092E13
:10131000FCD70A2EFAD70001B951BA11D8A412008D
:1013200071EC10F02AEC11F012001AC01EF01F6AC6
:10133000206A19341E3601E31F801E50216E215091
:10134000D8A407D0000E186E000E196E000E1A6E8B
:1013500012001DC01EF01F6A206A1C341E3601E3F5
:101360001F801E50266E2650D8A407D0000E186E7F
:10137000000E196E000E1A6E120026507B0F2126E9
:101380001AC026F01D50261A800E2616198E1C8EA5
:10139000FF0E1B16FF0E1C16000E1D16000E226EF1
:1013A000000E236E000E246E070E256E18A006D0C8
:1013B0001B5022261C5023221D502422D8901A3262
:1013C00019321832D8901B361C361D36252EEED712
:1013D000090E256E18A006D01B5022261C50232271
:1013E0001D502422D8901A3219321832D890243243
:1013F00023322232252EEED722C001F023C002F084
:1014000024C003F021C004F026C005F0C0EC0BF0AE
:1014100001C018F002C019F003C01AF012000BC08E
:101420000FF0106A116A0A340F3601E310800F5072
:10143000166E1650D8A407D0000E096E000E0A6E64
:10144000000E0B6E12000EC00FF0106A116A0D3400
:101450000F3601E310800F50176E1750D8A407D035
:10146000000E096E000E0A6E000E0B6E1200000ECA
:10147000136E000E146E000E156E1750890F165E57
:101480000BC017F00E50171A800E17160A8EFF0E9B
:101490000916FF0E0A16000E0B160D8EFF0E0C1607
:1014A000FF0E0D16000E0E16180E126ED890133683
:1014B000143615360C50095C0D500A580E500B5856
:1014C000D8A007D00C50095E0D500A5A0E500B5A86
:1014D0001380D89009360A360B36122EE7D713C080
:1014E00001F014C002F015C003F016C004F017C0DC
:1014F00005F0C0EC0BF001C009F002C00AF003C017
:101500000BF012003F504010D8B464D0000E0C6EA7
:10151000800E0D6E440E0E6E27C009F028C00AF032
:1015200029C00BF00FEC0AF009C018F00AC019F03E
:101530000BC01AF0000E1B6E790E1C6E430E1D6E52
:1015400095EC09F018C02AF019C02BF01AC02CF045
:101550002AC001F02BC002F02CC003F0000E046E74
:10156000790E056E430E066E5DEC0EF0D8A006D027
:10157000000E2A6E790E2B6E430E07D02CAE06D0CD
:10158000000E2A6E000E2B6E000E2C6E3750381097
:101590003910D8B412002AC018F02BC019F02CC092
:1015A0001AF0CD0E1B6ECC0E1C6E3E0E1D6E95EC11
:1015B00009F018C0AEF019C0AFF01AC0B0F02AC0E0
:1015C00001F02BC002F02CC003F057EC0BF00150DF
:1015D000BE6E1200000EBE6E12008EC090F0916BB7
:1015E000926B8D35903701E3918190519A6F9A51AA
:1015F000D8A409D0000E8C6F000E8D6F000E8E6F78
:10160000000E8F6F1200170E906F8CC091F08DC07E
:1016100092F08EC093F09029946F04D0D8909333B9
:1016200092339133942FFAD700019151956F8D8F9A
:10163000FF0E8C17FF0E8D17000E8E178C51966FB4
:101640008D51976F8E51986F996B8E0E9A5F9AAFEE
:101650000DD09A51800A8F0FD8A0CCD7D89099334B
:101660009833973396339A3FF9D70DD0170E9A6572
:1016700007D0C0D7D89096379737983799379A07B9
:101680009A51D8A4F7D79551D8B408D0991F981F6C
:10169000971F966D000E97239823992396C08CF080
:1016A00097C08DF098C08EF099C08FF0120003C0E3
:1016B00005F0066A076A0234053601E30680055024
:1016C0000F6E0F50D8A409D0000E016E000E026EEE
:1016D000000E036E000E046E1200170E056E01C0A0
:1016E00006F002C007F003C008F00528096E04D018
:1016F000D890083207320632092EFAD706500A6E01
:10170000028EFF0E0116FF0E0216000E0316015088
:101710000B6E02500C6E03500D6E0E6A8E0E0F5E35
:101720000FAE0DD00F50800A8F0FD8A0CDD7D89014
:101730000E320D320C320B320F3EF9D70DD0170E90
:101740000F6407D0C1D7D8900B360C360D360E3645
:101750000F060F50D8A4F7D70A50D8B408D00E1EE1
:101760000D1E0C1E0B6C000E0C220D220E220BC047
:1017700001F00CC002F00DC003F00EC004F0120026
:101780000450D8B405D0015002100310D8A40CD0D6
:10179000000E016E000E026E000E036E1200042A8F
:1017A000D890033202320132000E0114066E000E90
:1017B0000214076EFE0E0314086E06500710081080
:1017C000D8B40CD0ECD7042A010E0126000E022258
:1017D000000E0322D890033202320132000E0114AF
:1017E000066E000E0214076EFF0E0314086E0650FC
:1017F00007100810D8B406D0E6D70406D8900136F2
:101800000236033602BE03D0020E0460F6D704A0EF
:10181000029ED8900432045003120550D8A4038EBF
:1018200001C001F002C002F003C003F01200906F8B
:1018300000019005D8A411D08F517F0F936F933979
:101840000F0B916F93510F0B926F9151D1EC11F0DF
:1018500000019251D1EC11F01200020E9019D8A49F
:1018600011D08F51BF0F936F93390F0B916F93511D
:101870000F0B926F9151D1EC11F000019251D1EC0C
:1018800011F01200030E9019D8A411D08F51930FAC
:10189000936F93390F0B916F93510F0B926F91517F
:1018A000D1EC11F000019251D1EC11F01200040EB4
:1018B0009019D8A412008F51D30F936F93390F0B47
:1018C000916F93510F0B926F9151D1EC11F0000178
:1018D0009251D1EC11F01200056E0504D8A410D07D
:1018E00004507F0F086E08380F0B066E08500F0B60
:1018F000076E06502FEC12F007502FEC12F012007A
:10190000020E0518D8A410D00450BF0F086E083876
:101910000F0B066E08500F0B076E06502FEC12F0DF
:1019200007502FEC12F01200030E0518D8A410D0A7
:101930000450930F086E08380F0B066E08500F0BFB
:10194000076E06502FEC12F007502FEC12F0120029
:10195000040E0518D8A412000450D30F086E0838DE
:101960000F0B066E08500F0B076E06502FEC12F08F
:1019700007502FEC12F01200000E6D6F020E6C6F0C
:10198000000E4A6E010E496E63EC12F05CEC12F030
:10199000010E00018F6F010E17EC0CF0A90E000173
:1019A000906F92EC10F0B551B2EC10F00001B7510D
:1019B000B2EC10F00E0E00018F6F010E17EC0CF060
:1019C000D80E0001906F92EC10F0040EB2EC10F003
:1019D000010E00018F6F020E17EC0CF0B30E000128
:1019E000906F92EC10F0C151300FB2EC10F000018A
:1019F000BF51300FB2EC10F00E0E00018F6F020ECF
:101A000017EC0CF0D40E0001906F92EC10F0030E66
:101A1000B2EC10F01200000E6D6F020E6C6F000E33
:101A20004A6E010E496E78EC12F071EC12F0010E64
:101A3000046E010E6CEC0CF0A90E056ED1EC10F0EA
:101A40000001B5510EEC11F00001B7510EEC11F090
:101A50000E0E046E010E6CEC0CF0D80E056ED1EC7F
:101A600010F0040E0EEC11F0010E046E020E6CEC80
:101A70000CF0B30E056ED1EC10F00001C151300F27
:101A80000EEC11F00001BF51300F0EEC11F00E0EF4
:101A9000046E020E6CEC0CF0D40E056ED1EC10F05E
:101AA000030E0EEC11F01200929692989598959A6A
:101AB000959C959E000E79EC11F0340E00018F6F0D
:101AC000F10EE82EFED78F2FFCD700D0030ED1ECFD
:101AD00011F00D0E00018F6FFB0EE82EFED78F2F39
:101AE000FCD700D0030ED1EC11F01D0E00018F6F5A
:101AF000910EE82EFED78F2FFCD7030ED1EC11F0FC
:101B0000020ED1EC11F0020ED1EC11F0080ED1EC66
:101B100011F0000ED1EC11F00C0ED1EC11F0000E12
:101B2000D1EC11F0060ED1EC11F063EC12F01200C2
:101B3000000E916F8FAF06D08E6D8F1FD8B08F2B98
:101B4000010E916F8DAF06D08C6D8D1FD8B08D2B8F
:101B5000010E911B000E936F000E926F8E518F112C
:101B6000D8B41CD0010E906F04D0D8908E378F3728
:101B7000902B8FAFFAD7D890923793378E518C5DD8
:101B80008F518D59D8A005D08E518C5F8F518D5BB0
:101B90009281D8908F338E33902FEDD79151D8B456
:101BA00004D0926D931FD8B0932B92C08CF093C049
:101BB0008DF01200000E066E04AE06D0036C041EFB
:101BC000D8B0042A010E066E02AE06D0016C021EC9
:101BD000D8B0022A010E061A000E086E000E076E1B
:101BE00003500410D8B41CD0010E056E04D0D89058
:101BF00003360436052A04AEFAD7D89007360836DD
:101C00000350015C04500258D8A005D00350015E77
:101C10000450025A0780D89004320332052EEDD7C3
:101C20000650D8B404D0076C081ED8B0082A07C0E4
:101C300001F008C002F01200040EBA6EA190000E6E
:101C4000BC6E000EBB6E8280060EE82EFED700D062
:101C50008290000ECF6E000ECE6E010E4C6E82B2E0
:101C600003D04C04D8B4FBD74C50D8A402D0000EFB
:101C70001200CD80A1B002D09EA0FCD7CD909EA036
:101C800003D00001936917D08C0EBB5C390EBC5891
:101C9000D8A004D0390EBC6E8C0EBB6EBBCF8CF0BE
:101CA000BCCF8DF0000E00018F6F3A0E8E6F6CEC82
:101CB0000FF08C29936F9351120003AE0FD0000EDA
:101CC000076E000E086E800E096E0150075C016EF3
:101CD00002500858026E03500958036E06AE0FD02A
:101CE000000E076E000E086E800E096E0450075C31
:101CF000046E05500858056E06500958066E000E11
:101D0000011A000E021A800E031A000E041A000EA9
:101D1000051A800E061A0450015C05500258065040
:101D20000358D8B002D0D8901200D8801200000E0C
:101D3000916F8DAF06D08C6D8D1FD8B08D2B010E9D
:101D4000916F8FAF04D08E6D8F1FD8B08F2B8E51B7
:101D50008F11D8B418D0010E906F04D0D8908E3760
:101D60008F37902B8FAFFAD78E518C5D8F518D5955
:101D7000D8A004D08E518C5F8F518D5BD8908F335B
:101D80008E33902FF1D79151D8B404D08C6D8D1F24
:101D9000D8B08D2B8CC08CF08DC08DF01200000E51
:101DA000066E02AE06D0016C021ED8B0022A010EE9
:101DB000066E04AE04D0036C041ED8B0042A03508F
:101DC0000410D8B418D0010E056E04D0D890033694
:101DD0000436052A04AEFAD70350015C04500258B9
:101DE000D8A004D00350015E0450025AD8900432A7
:101DF0000332052EF1D70650D8B404D0016C021E70
:101E0000D8B0022A01C001F002C002F01200220E76
:101E1000F66E230EF76E000EF86E00EE60F010EE18
:101E20002CF00900F5CFEEFFE550E150FAE17E0E0F
:101E3000F66E240EF76E000EF86E00EE37F010EE20
:101E400010F00900F5CFEEFFE550E150FAE100EEA9
:101E5000AEF0150EEE6AE806FDE100EE47F0080E62
:101E6000EE6AE806FDE14F904F92000EF86E000119
:101E70002AEF06F0066E41044210D8A41BD006C01B
:101E800005F00F0E051605500001C16FC26BC2BFF1
:101E90000AD0C25104E1060EC15DD8A004D0000EE4
:101EA000C26F050EC16FC151300F0EEC11F0414AE7
:101EB000422A1200020E41184210D8A4120006C095
:101EC00005F00F0E051605500001BF6FC06BBF5126
:101ED000300F0EEC11F0EBD7000E916F000E906FEB
:101EE0008E518F11D8B41CD0010E926F04D0D890AF
:101EF0008E378F37922B8FAFFAD7D8909037913794
:101F00008E518C5D8F518D59D8A005D08E518C5F2C
:101F10008F518D5B9081D8908F338E33922FEDD778
:101F200090C08CF091C08DF0120041044210D8B4E2
:101F300012004104046E020E6CEC0CF0200E0EEC4C
:101F400011F04104046E020E6CEC0CF04106D8A0B6
:101F5000420641044210D8A406D0000E0001C26F10
:101F6000000EC16F1200020E41184210D8A41200D8
:101F7000000E0001C06F000EBF6F1200000E0001C6
:101F80006D6F010E6C6F63EC12F0010E00018F6F2C
:101F9000010E17EC0CF0660E0001906F92EC10F041
:101FA000090E8F6F020E17EC0CF0C70E0001906F38
:101FB00092EC10F07F0EB2EC10F0010E00018F6F6A
:101FC000020E17EC0CF047EC12F0120078EC12F055
:101FD00071EC12F0010E046E010E6CEC0CF0BD0EF3
:101FE000056ED1EC10F0010E046E020E6CEC0CF0DC
:101FF000860E056ED1EC10F0030E0EEC11F0000E03
:10200000466E000E456E3DC08DFF000EBE6E000E8A
:10201000406E000E3F6E1200000E6D6F010E6C6F71
:1020200078EC12F0010E046E010E6CEC0CF0660EF2
:10203000056ED1EC10F0090E046E020E6CEC0CF083
:10204000C70E056ED1EC10F07F0E0EEC11F0010EF4
:10205000046E020E6CEC0CF06AEC12F0120095515A
:102060009611D8B418D0010E976F04D0D890953738
:102070009637972B96AFFAD79551935D9651945911
:10208000D8A004D09551935F9651945BD890963325
:102090009533972FF1D793C093F094C094F012002A
:1020A000000EC06F000EBF6F000EC06F000EBF6F3E
:1020B000300EBF25B76F000EC021B86F300EBF25A0
:1020C000B56F000EC021B66F000E8C6E60C08DFF24
:1020D000000EBC6F000EBB6F000E426E010E416E13
:1020E0001200000EC06F000EBF6F000EC06F000E1A
:1020F000BF6F300EBF25B76F000EC021B86F300E16
:10210000BF25B56F000EC021B66F000E8C6E60C08B
:102110008DFF000EBC6F000EBB6F000E426E010EF5
:10212000416E1200000E936F000E926F0ED0905110
:102130009225916F91C0F6FF080EF76E0800F550DA
:10214000B2EC10F00001924B932B90519225916FBD
:1021500091C0F6FF080EF76E0800F5500009D8B4DC
:102160001200E5D700018F6F00018F510F0B8D6FAB
:102170008F51F00B8E6F89868E390F0B79EC11F031
:1021800089881A0EE82EFED700D0899800018D515B
:1021900079EC11F089881A0EE82EFED700D08998C4
:1021A0001200000E086E000E076E0DD005500724B9
:1021B000066E06C0F6FF080EF76E0800F5500EEC2E
:1021C00011F0074A082A05500724066E06C0F6FFDC
:1021D000080EF76E0800F5500009D8B41200E6D7D3
:1021E000000E6D6F030E6C6F63EC12F05CEC12F07E
:1021F000010E00018F6F010E17EC0CF0540E000160
:10220000906F92EC10F00D0E8F6F020E17EC0CF029
:10221000CF0E0001906F92EC10F01200046E04508B
:102220000F0B026E0450F00B036E898603380F0B00
:10223000A7EC11F089881A0EE82EFED700D08998F5
:102240000250A7EC11F089881A0EE82EFED700D0B4
:1022500089981200000E6D6F030E6C6F78EC12F00F
:1022600071EC12F0010E046E010E6CEC0CF0540EC9
:10227000056ED1EC10F00D0E046E020E6CEC0CF03D
:10228000CF0E056ED1EC10F01200300EBF25B76FE7
:10229000000EC021B86F300EC125B56F000EC221EF
:1022A000B66F000E8C6E60C08DFF000EBC6F000E0E
:1022B000BB6F000E426E010E416E0BEC0DF0120072
:1022C000000E026E000E016E0AD0ACA2FED70150C5
:1022D0006E0FD96EDA6ADF50AD6E014A022A0150E4
:1022E0006E0FD96EDA6ADF50D8A4EFD70A0EAD6E42
:1022F000120000018C6F00018CA102D08C8801D0EB
:102300008C988CA302D08C8A01D08C9A8CA502D098
:102310008C8C01D08C9C8CA702D08C8E12008C9E51
:102320001200020006000400050001000000020087
:10233000496E696369616E646F000000000000000F
:102340000000000000000000000000000000016E1E
:1023500001A002D08C8801D08C9801A202D08C8A76
:1023600001D08C9A01A402D08C8C01D08C9C01A647
:1023700002D08C8E12008C9E12006C056D11D8A4B8
:1023800003D016EC09F01200020E6C196D11D8B4CE
:102390001200030E6C196D11D8A412000CEC10F091
:1023A000120000018E6F899600018E5179EC11F0B8
:1023B00089880B0E00018D6F620EE82EFED78D2FDF
:1023C000FCD70000899812008C518E03F3CF90F057
:1023D000F4CF91F08C518F03F35091278D518E03E0
:1023E000F350912790C08CF091C08DF012000150F5
:1023F0000302F3CF05F0F4CF06F001500402F350CE
:10240000062602500302F350062605C001F006C05E
:1024100002F01200046E04C003F0D8900336D89086
:102420000336C250030B0310C26EC282C2B2FED783
:10243000C3CF01F0C4CF02F0120009C001F00AC0FE
:1024400002F0036A8E0E046E000E056EC0EC0BF0F7
:1024500001C009F002C00AF003C00BF01200036EC5
:1024600089960350A7EC11F089880B0E026E620E5C
:10247000E82EFED7022EFCD700D0899812000080EB
:102480003F8FC241030001000100FF030100000E65
:10249000D1EC11F00F0ED1EC11F01200040ED1ECC2
:1024A00011F0000ED1EC11F01200000ED1EC11F081
:1024B000020ED1EC11F01200000ED1EC11F00C0E56
:1024C000D1EC11F01200000ED1EC11F0010ED1ECA4
:1024D00011F01200000E2FEC12F00F0E2FEC12F084
:1024E0001200000E2FEC12F00C0E2FEC12F0120066
:1024F000000E2FEC12F0010E2FEC12F0120089BA30
:1025000002D0898A1200899A120071EC10F00CEC4A
:0425100010F01200B5
:020000040020DA
:08000000FFFFFFFFFFFFFFFF00
:020000040030CA
:0E00000000091F1EFF8181FF0FC00FE00F409F
:00000001FF
