:0400000007EF00F016
:0A0008004C825CED05F0E9EF0CF00E
:100800000001000A006400E80310270F091C080219
:1008100007121E040E0A0A1F1B1F0003030207060D
:100820000E0A1304110E04040A11000A0A0A001128
:10083000110E004375656E74612066696E616C69A6
:100840007A6164610056616C6F7220646520414476
:1008500043203D202575005069657A617320612031
:10086000636F6E7461723A004C61626F7261746F93
:1008700072696F20303400456D657267656E63691B
:100880006120004D6963726F7320554E414C0050DA
:100890004943313846343535300046616C74616EF9
:1008A00074653A004F626A657469766F3A00506108
:1008B0007261646120646500413A6F6B20423A00C6
:0D08C000413A4F4B00233D5800433D0000DE
:1008CE00010EC26E880EC06E000E966E000E956EF4
:1008DE00010E926E000E946E000E8C6E070E8D6ED3
:1008EE00898A240EAC6E800EAB6E080EB86E190E91
:1008FE00AF6EF00E936E000E8A6EF19E210E316E6B
:10090E00760EE82EFED7312EFCD700D00B0ED76E0A
:10091E00DC0ED66E010ED56EF294F28AD58EF29062
:10092E00F286F28EC150F00B0E09C16EF90ECB6E2F
:10093E007D0EBE6E000ECA6E0C0EBD6E000ECC6E1F
:10094E00CA8401EC0CF002EC10F02B0E186E000EA7
:10095E0018EC06F0230E186E010E18EC06F01B0EA6
:10096E00186E020E18EC06F0130E186E030E18EC2D
:10097E0006F00B0E186E040E18EC06F009EC10F0D3
:10098E0017EC10F0010E166E010E04EC0AF0680E54
:10099E00186E63EC0EF0010E166E020E04EC0AF0E9
:1009AE008F0E186E63EC0EF00C0E166E020E04EC2B
:1009BE000AF0FBEC0FF0410E316EEE0EE82EFED774
:1009CE00312EFCD700D010EC10F0010E00019A6F02
:1009DE0017EC10F0010E166E010E04EC0AF0830EE9
:1009EE00186E63EC0EF0010E166E020E04EC0AF099
:1009FE00000EA1EC0EF0070E166E020E04EC0AF0BD
:100A0E00010EA1EC0EF000019A51020F166E020EAD
:100A1E0004EC0AF0020EA1EC0EF0020E326E450E40
:100A2E00316EAA0EE82EFED7312EFCD7322EFAD713
:100A3E0000019A2B050E9A65CBD717EC10F099ECA6
:100A4E000DF0000E98EC0FF014C033F015C034F01A
:100A5E0033C01CF034C01DF0D1EC0FF01CC092F06E
:100A6E001DC093F01EC094F0A4EC0AF0750E206E1B
:100A7E00450E216E33C022F034C023F0D2EC06F0C6
:100A8E0080A403D0316A312A01D0316A315000017D
:100A9E00986F996B9B519C11D8B4D3D79805991127
:100AAE00D8A4CFD75AEC07F0CCD70600D9CF0CF08C
:100ABE00DACF0DF0F3CF0EF0F4CF0FF0F6CF10F03B
:100ACE00F7CF11F0F8CF12F0F5CF13F0F2A089D0D6
:100ADE00000173517411D8B484D0F00E8118D8B4BB
:100AEE0077D0000E476EFE0E8A6E81B804D0310E9E
:100AFE0019EC0DF06BD081BA04D0320E19EC0DF05A
:100B0E0065D081BC04D0330E19EC0DF05FD081BEE0
:100B1E0008D0020E4A184B10D8B403D084EC0FF054
:100B2E0055D0FD0E8A6E81B804D0340E19EC0DF03E
:100B3E004DD081BA04D0350E19EC0DF047D081BCE2
:100B4E0004D0360E19EC0DF041D081BE07D04A0408
:100B5E004B10D8A403D072EC0DF038D0FB0E8A6E79
:100B6E0081B804D0370E19EC0DF030D081BA04D014
:100B7E00380E19EC0DF02AD081BC04D0390E19ECC8
:100B8E000DF024D081BE08D0020E4A184B10D8A406
:100B9E0003D00FEC0FF01AD0F70E8A6E81B803D087
:100BAE0033EC10F013D081BA04D0300E19EC0DF0E6
:100BBE000DD081BC08D0020E4A184B10D8A403D019
:100BCE0039EC10F003D081AE21EC0EF0F00E8A6EEF
:100BDE00410E0B6EEE0EE82EFED70B2EFCD700D07C
:100BEE00F290F2A40CD0F2940B0ED76EDC0ED66EF1
:100BFE0089B202D0898201D089922AEC0FF013C0FB
:100C0E00F5FF12C0F8FF11C0F7FF10C0F6FF0FC0BE
:100C1E00F4FF0EC0F3FF0DC0DAFF0CC0D9FF4C92EB
:100C2E0011001A6E9ED0000E1B6E18501B24196EEA
:100C3E0019C0F6FF080EF76E0800F550A1EC0EF085
:100C4E001B2A070E1B64F1D71200080E1C6E1850DB
:100C5E001C24196EF80E192619C0F6FF080EF76E31
:100C6E000800F550A1EC0EF01C2A0F0E1C64EFD7F5
:100C7E001200100E1D6E18501D24196EF00E19263E
:100C8E0019C0F6FF080EF76E0800F550A1EC0EF035
:100C9E001D2A170E1D64EFD71200180E1E6E185067
:100CAE001E24196EE80E192619C0F6FF080EF76EEF
:100CBE000800F550A1EC0EF01E2A1F0E1E64EFD791
:100CCE001200200E1F6E18501F24196EE00E1926EA
:100CDE0019C0F6FF080EF76E0800F550A1EC0EF0E5
:100CEE001F2A270E1F64EFD71200280E206E1850F1
:100CFE002024196ED80E192619C0F6FF080EF76EAD
:100D0E000800F550A1EC0EF0202A2F0E2064EFD72C
:100D1E001200300E216E18502124196ED00E192695
:100D2E0019C0F6FF080EF76E0800F550A1EC0EF094
:100D3E00212A370E2164EFD71200380E226E18507A
:100D4E002224196EC80E192619C0F6FF080EF76E6A
:100D5E000800F550A1EC0EF0222A3F0E2264EFD7C8
:100D6E0012001A50000AD8B45ED7010AD8B46DD753
:100D7E00030AD8B47ED7010AD8B48FD7070AD8B4DD
:100D8E00A0D7010AD8B4B1D7030AD8B4C2D7010A82
:100D9E00D8A41200D2D7220E266E73D0250E2A1892
:100DAE00D8B407D02050D96EDA6A2AC0DFFF202AC5
:100DBE0068D0000E256E03D0C00E251212D0212A47
:100DCE002104246E24C0F6FF080EF76E0800F5CF3E
:100DDE002AF02A50000AD8B461D0750AD8B4ECD7DC
:100DEE0050D02650D96EDA6ADECF27F0DDCF28F04C
:100DFE00020E2626010E2A6E2A50020DF350010F06
:100E0E00246E24C0F6FF080EF76E0900F550275C1D
:100E1E000900F5502858D8A005D02A2A050E2A1800
:100E2E00D8A4EAD72AC029F028D02950020DF350B1
:100E3E00010F246E24C0F6FF080EF76E0900F5CFE1
:100E4E0016F00A00F5CF17F027C014F028C015F0E1
:100E5E0049EC0DF014C01BF015C01CF0000E1E6EF8
:100E6E000A0E1D6EDFEC0DF01B50300F2A6E205057
:100E7E00D96EDA6A2AC0DFFF202A29062928D8A4CB
:100E8E00D4D7212A2104246E24C0F6FF080EF76E53
:100E9E000800F5CF2AF02A50D8A480D72050D96E5A
:100EAE00DA6ADF6A120045C014F046C015F0000E73
:100EBE00176E0A0E166EABEC0FF043501424416EF3
:100ECE0044501520426E3F4A402A3F50415C1C6EF2
:100EDE00405042581D6E010E1C243D6E000E1D200A
:100EEE003E6E3DC014F03EC015F0000E176E0A0E99
:100EFE00166E79EC0CF0300E14243B6E000E15209D
:100F0E003C6E3DC014F03EC015F0000E176E0A0E7A
:100F1E00166E7DEC0BF0300E1424396E000E15207B
:100F2E003A6EFF0E3F24146EFF0E4020156E000E1B
:100F3E00176E0A0E166E79EC0CF014C037F015C051
:100F4E0038F0FF0E3F24146EFF0E4020156E000E7B
:100F5E00176E0A0E166E7DEC0BF014C035F015C030
:100F6E0036F037C08CFF3550020DF350600FD96E3E
:100F7E00DA6ADF508D6EF1EC0AF0020E1D6E450E30
:100F8E001C6EAA0EE82EFED71C2EFCD71D2EFAD7ED
:100F9E003D503E10D8A4120000EC0EF0D9EC0EF02D
:100FAE00120045C001F046C002F0000E046E0A0E9B
:100FBE00036EBEEC0FF043500124416E44500220EC
:100FCE00426E3F4A402A3F50415C096E40504258A3
:100FDE000A6E010E09243D6E000E0A203E6E3DC0C3
:100FEE0001F03EC002F0000E046E0A0E036EB1EC6C
:100FFE000CF0300E01243B6E000E02203C6E3DC004
:10100E0001F03EC002F0000E046E0A0E036EBFEC3D
:10101E000BF0300E0124396E000E02203A6EFF0ED8
:10102E003F24016EFF0E4020026E000E046E0A0E6B
:10103E00036EB1EC0CF001C037F002C038F0FF0EB9
:10104E003F24016EFF0E4020026E000E046E0A0E4B
:10105E00036EBFEC0BF001C035F002C036F037C0A6
:10106E008CFF3550020DF350600FD96EDA6ADF50E7
:10107E008D6E37EC0BF0020E0A6E450E096EAA0E3F
:10108E00E82EFED7092EFCD70A2EFAD73D503E1079
:10109E00D8A4120042EC0EF0F4EC0EF012002DC0AB
:1010AE0089F000018A6B8B6B2C34893701E38A81BE
:1010BE0089518C6F8C51D8A407D0000E2B6E000E68
:1010CE002C6E000E2D6E120030C089F08A6B8B6B69
:1010DE002F34893701E38A818951916F9151D8A4B8
:1010EE0007D0000E2B6E000E2C6E000E2D6E120011
:1010FE0091517B0F8C272DC091F03050911B800E9B
:10110E0091172C8E2F8EFF0E2E16FF0E2F16000E01
:10111E003016000E8D6F000E8E6F000E8F6F070E45
:10112E00906F2BA006D02E508D272F508E2330502F
:10113E008F23D8902D322C322B32D8902E362F363C
:10114E003036902FEED7090E906F2BA006D02E5072
:10115E008D272F508E2330508F23D8902D322C3246
:10116E002B32D8908F338E338D33902FEED78DC098
:10117E0014F08EC015F08FC016F08CC017F091C011
:10118E0018F0ADEC09F014C02BF015C02CF016C001
:10119E002DF012001EC022F0236A246A1D3422365E
:1011AE0001E323802250296E2950D8A407D0000EC7
:1011BE001C6E000E1D6E000E1E6E120021C022F05F
:1011CE00236A246A2034223601E3238022502A6EB9
:1011DE002A50D8A407D0000E1C6E000E1D6E000EF5
:1011EE001E6E1200000E266E000E276E000E286E6A
:1011FE002A50890F295E1EC02AF021502A1A800E0D
:10120E002A161D8EFF0E1C16FF0E1D16000E1E1624
:10121E00208EFF0E1F16FF0E2016000E2116180E22
:10122E00256ED8902636273628361F501C5C205047
:10123E001D5821501E58D8A007D01F501C5E20509C
:10124E001D5A21501E5A2680D8901C361D361E3629
:10125E00252EE7D726C014F027C015F028C016F0AB
:10126E0029C017F02AC018F0ADEC09F014C01CF01C
:10127E0015C01DF016C01EF0120016C018F0196A27
:10128E001A6A1534183601E319801850226E22504E
:10129E00D8A409D0000E146E000E156E000E166E38
:1012AE00000E176E1200170E186E14C019F015C02E
:1012BE001AF016C01BF018281C6E04D0D8901B32E2
:1012CE001A3219321C2EFAD719501D6E158EFF0EBA
:1012DE001416FF0E1516000E161614501E6E15500F
:1012EE001F6E1650206E216A8E0E225E22AE0DD01B
:1012FE002250800A8F0FD8A0CDD7D890213220321D
:10130E001F321E32223EF9D70DD0170E226407D09F
:10131E00C1D7D8901E361F362036213622062250CF
:10132E00D8A4F7D71D50D8B408D0211E201E1F1EDA
:10133E001E6C000E1F22202221221EC014F01FC080
:10134E0015F020C016F021C017F012001750D8B4B7
:10135E0005D0145015101610D8A40CD0000E146E13
:10136E00000E156E000E166E1200172AD890163249
:10137E0015321432000E1414196E000E15141A6E56
:10138E00FE0E16141B6E19501A101B10D8B40CD06A
:10139E00ECD7172A010E1426000E1522000E162267
:1013AE00D890163215321432000E1414196E000E27
:1013BE0015141A6EFF0E16141B6E19501A101B10F0
:1013CE00D8B406D0E6D71706D8901436153616368A
:1013DE0015BE03D0020E1760F6D717A0159ED89033
:1013EE001732175016121850D8A4168E14C014F0B7
:1013FE0015C015F016C016F01200176E1704D8A4FB
:10140E0010D016507F0F1A6E1A380F0B186E1A5016
:10141E000F0B196E1850E3EC0FF01950E3EC0FF0B0
:10142E001200020E1718D8A410D01650BF0F1A6E45
:10143E001A380F0B186E1A500F0B196E1850E3EC6A
:10144E000FF01950E3EC0FF01200030E1718D8A48A
:10145E0010D01650930F1A6E1A380F0B186E1A50B2
:10146E000F0B196E1850E3EC0FF01950E3EC0FF060
:10147E001200040E1718D8A412001650D30F1A6EAD
:10148E001A380F0B186E1A500F0B196E1850E3EC1A
:10149E000FF01950E3EC0FF01200046E0404D8A400
:1014AE0010D003507F0F076E07380F0B056E0750D5
:1014BE000F0B066E0550EFEC0FF00650EFEC0FF031
:1014CE001200020E0418D8A410D00350BF0F076EDE
:1014DE0007380F0B056E07500F0B066E0550EFEC1D
:1014EE000FF00650EFEC0FF01200030E0418D8A404
:1014FE0010D00350930F076E07380F0B056E075071
:10150E000F0B066E0550EFEC0FF00650EFEC0FF0E0
:10151E001200040E0418D8A412000350D30F076E45
:10152E0007380F0B056E07500F0B066E0550EFECCC
:10153E000FF00650EFEC0FF01200000E1F6E800E33
:10154E00206E440E216E92C01CF093C01DF094C00C
:10155E001EF0D1EC08F01CC02BF01DC02CF01EC0EC
:10156E002DF0000E2E6E790E2F6E430E306E56EC51
:10157E0008F02BC095F02CC096F02DC097F095C0BA
:10158E0014F096C015F097C016F0000E176E790E77
:10159E00186E430E196E3FEC0CF0D8A007D0000E5B
:1015AE000001956F790E966F430E08D0000197AF2C
:1015BE0006D0000E956F000E966F000E976F95C0B9
:1015CE0014F096C015F097C016F044EC09F01450C4
:1015DE00BE6E1200000E4B6E020E4A6E000E000121
:1015EE009C6F010E9B6F17EC10F010EC10F0010EBB
:1015FE00166E010E04EC0AF09A0E186E63EC0EF0E5
:10160E003950A1EC0EF03B50A1EC0EF00E0E166E02
:10161E00010E04EC0AF0C90E186E63EC0EF0040E07
:10162E00A1EC0EF0010E166E020E04EC0AF0A40EE2
:10163E00186E63EC0EF04550300FA1EC0EF04350D7
:10164E00300FA1EC0EF00E0E166E020E04EC0AF028
:10165E00C50E186E63EC0EF0030EA1EC0EF0120028
:10166E00000E4B6E020E4A6E000E00019C6F010EB4
:10167E009B6F2CEC10F025EC10F0010E036E010E9A
:10168E0054EC0AF09A0E056E82EC0EF03950BDEC59
:10169E000EF03B50BDEC0EF00E0E036E010E54EC30
:1016AE000AF0C90E056E82EC0EF0040EBDEC0EF0C3
:1016BE00010E036E020E54EC0AF0A40E056E82ECBF
:1016CE000EF04550300FBDEC0EF04350300FBDEC18
:1016DE000EF00E0E036E020E54EC0AF0C50E056EE1
:1016EE0082EC0EF0030EBDEC0EF01200000E196E21
:1016FE0017AE06D0166C171ED8B0172A010E196E2B
:10170E0015AE06D0146C151ED8B0152A010E191A76
:10171E00000E1B6E000E1A6E16501710D8B41CD089
:10172E00010E186E04D0D89016361736182A17AE3A
:10173E00FAD7D8901A361B361650145C1750155817
:10174E00D8A005D01650145E1750155A1A80D8908E
:10175E0017321632182EEDD71950D8B404D01A6C91
:10176E001B1ED8B01B2A1AC014F01BC015F0120095
:10177E00000E066E04AE06D0036C041ED8B0042A0A
:10178E00010E066E02AE06D0016C021ED8B0022A01
:10179E00010E061A000E086E000E076E035004109E
:1017AE00D8B41CD0010E056E04D0D8900336043682
:1017BE00052A04AEFAD7D890073608360350015CD6
:1017CE0004500258D8A005D00350015E0450025AAE
:1017DE000780D89004320332052EEDD70650D8B4C8
:1017EE0004D0076C081ED8B0082A07C001F008C044
:1017FE0002F01200929692989598959A959C959EC5
:10180E00000E43EC0FF0070E166E7D0EE82EFED77F
:10181E00162EFCD70000030EE3EC0FF0FA0E00D0EC
:10182E00E82EFDD7030EE3EC0FF0040E166E910EAC
:10183E00E82EFED7162EFCD70000030EE3EC0FF0B9
:10184E00020EE3EC0FF0020EE3EC0FF0080EE3ECE9
:10185E000FF0000EE3EC0FF00C0EE3EC0FF0000EA9
:10186E00E3EC0FF0060EE3EC0FF017EC10F01200A5
:10187E0016AE0FD0000E1A6E000E1B6E800E1C6E72
:10188E0014501A5C146E15501B58156E16501C58B9
:10189E00166E19AE0FD0000E1A6E000E1B6E800E55
:1018AE001C6E17501A5C176E18501B58186E195074
:1018BE001C58196E000E141A000E151A800E161AE8
:1018CE00000E171A000E181A800E191A1750145CF3
:1018DE001850155819501658D8B002D0D89012007A
:1018EE00D8801200000E196E15AE06D0146C151E9F
:1018FE00D8B0152A010E196E17AE04D0166C171E2D
:10190E00D8B0172A16501710D8B418D0010E186E6A
:10191E0004D0D89016361736182A17AEFAD71650A6
:10192E00145C17501558D8A004D01650145E1750DA
:10193E00155AD89017321632182EF1D71950D8B42E
:10194E0004D0146C151ED8B0152A14C014F015C08E
:10195E0015F01200000E066E02AE06D0016C021ECD
:10196E00D8B0022A010E066E04AE04D0036C041E1B
:10197E00D8B0042A03500410D8B418D0010E056E46
:10198E0004D0D89003360436052A04AEFAD7035095
:10199E00015C04500258D8A004D00350015E0450DC
:1019AE00025AD89004320332052EF1D70650D8B41D
:1019BE0004D0016C021ED8B0022A01C001F002C090
:1019CE0002F01200DE0EF66E1E0EF76E000EF86EB0
:1019DE0000EE60F010EE29F00900F5CFEEFFE550B5
:1019EE00E150FAE17C0EF66E200EF76E000EF86EE8
:1019FE0000EE48F010EE04F00900F5CFEEFFE550D2
:101A0E00E150FAE100019C6B9B6B00EE33F0150E7A
:101A1E00EE6AE806FDE14C904C92000EF86E000165
:101A2E0067EF04F0066E48044910D8A41AD006C019
:101A3E0005F00F0E05160550456E466A46BE0AD0D5
:101A4E00465004E1060E455CD8A004D0000E466E4A
:101A5E00050E456E4550300FBDEC0EF0484A492A32
:101A6E001200020E48184910D8A4120006C005F044
:101A7E000F0E05160550436E446A4350300FBDECF1
:101A8E000EF0ECD7000E1A6E000E196E16501710CF
:101A9E00D8B41CD0010E186E04D0D8901636173656
:101AAE00182A17AEFAD7D89019361A361650145C73
:101ABE0017501558D8A005D01650145E1750155A49
:101ACE001980D89017321632182EEDD719C014F08F
:101ADE001AC015F0120048044910D8B41200480478
:101AEE00036E020E54EC0AF0200EBDEC0EF048040C
:101AFE00036E020E54EC0AF04806D8A049064804BC
:101B0E004910D8A405D0000E466E000E456E120088
:101B1E00020E48184910D8A41200000E446E000E92
:101B2E00436E1200000E4B6E010E4A6E17EC10F053
:101B3E00010E166E010E04EC0AF0570E186E63ECD1
:101B4E000EF0090E166E020E04EC0AF0B80E186EA8
:101B5E0063EC0EF07F0EA1EC0EF0010E166E020E6F
:101B6E0004EC0AF0FBEC0FF01200000E4B6E010EAF
:101B7E004A6E2CEC10F0010E036E010E54EC0AF0BE
:101B8E00570E056E82EC0EF0090E036E020E54EC2B
:101B9E000AF0B80E056E82EC0EF07F0EBDEC0EF064
:101BAE00010E036E020E54EC0AF01EEC10F0120041
:101BBE001D501E10D8B418D0010E1F6E04D0D89030
:101BCE001D361E361F2A1EAEFAD71D501B5C1E5028
:101BDE001C58D8A004D01D501B5E1E501C5AD89005
:101BEE001E321D321F2EF1D71BC01BF01CC01CF065
:101BFE001200000E446E000E436E000E446E000E78
:101C0E00436E300E43243B6E000E44203C6E300E6D
:101C1E004324396E000E44203A6E000E8C6E60C066
:101C2E008DFF000E406E000E3F6E000E496E010ECF
:101C3E00486E12002CEC10F025EC10F0010E036E25
:101C4E00010E54EC0AF0AE0E056E82EC0EF0010E93
:101C5E00036E020E54EC0AF0770E056E82EC0EF057
:101C6E00030EBDEC0EF0000E0001746F000E736FCC
:101C7E006FC08DFF1200000E446E000E436E000EFC
:101C8E00446E000E436E300E43243B6E000E442015
:101C9E003C6E300E4324396E000E44203A6E000E18
:101CAE008C6E60C08DFF000E406E000E3F6E000EFB
:101CBE00496E010E486E1200000E1B6E000E1A6E5B
:101CCE000DD018501A24196E19C0F6FF080EF76EB3
:101CDE000800F550A1EC0EF01A4A1B2A18501A24CF
:101CEE00196E19C0F6FF080EF76E0800F5500009C0
:101CFE00D8B41200E6D7000E086E000E076E0DD097
:101D0E0005500724066E06C0F6FF080EF76E080093
:101D1E00F550BDEC0EF0074A082A05500724066E52
:101D2E0006C0F6FF080EF76E0800F5500009D8B48D
:101D3E001200E6D7176E17500F0B156E1750F00BDB
:101D4E00166E898616380F0B43EC0FF08988030E3A
:101D5E00E82EFED700008998155043EC0FF08988C5
:101D6E00030EE82EFED7000089981200046E045070
:101D7E000F0B026E0450F00B036E898603380F0BA7
:101D8E0059EC0FF08988030EE82EFED700008998D3
:101D9E00025059EC0FF08988030EE82EFED7000092
:101DAE0089981200000E4B6E030E4A6E17EC10F05F
:101DBE0010EC10F0010E166E010E04EC0AF0330E4C
:101DCE00186E63EC0EF00D0E166E020E04EC0AF099
:101DDE00C00E186E63EC0EF01200000E4B6E030E6A
:101DEE004A6E2CEC10F025EC10F0010E036E010E75
:101DFE0054EC0AF0330E056E82EC0EF00D0E036EEF
:101E0E00020E54EC0AF0C00E056E82EC0EF01200BB
:101E1E00300E43243B6E000E44203C6E300E4524A3
:101E2E00396E000E46203A6E000E8C6E60C08DFF2D
:101E3E00000E406E000E3F6E000E496E010E486E93
:101E4E0037EC0BF01200000E026E000E016E0AD07F
:101E5E00ACA2FED70150750FD96EDA6ADF50AD6EA7
:101E6E00014A022A0150750FD96EDA6ADF50D8A4E2
:101E7E00EFD70A0EAD6E1200146E14A002D08C882D
:101E8E0001D08C9814A202D08C8A01D08C9A14A402
:101E9E0002D08C8C01D08C9C14A602D08C8E120099
:101EAE008C9E1200016E01A002D08C8801D08C98FD
:101EBE0001A202D08C8A01D08C9A01A402D08C8C03
:101ECE0001D08C9C01A602D08C8E12008C9E12002A
:101EDE000200060004000500010000008FC241034D
:101EEE0000FF03010076616C6F722064652041442F
:091EFE00433D000000000000005B
:101F08004A044B10D8A403D0D8EC07F01200020EF4
:101F18004A184B10D8B41200030E4A184B10D8A414
:101F28001200BCEC0DF01200176E17C016F0D89016
:101F38001636D8901636C250030B1610C26EC282DF
:101F4800C2B2FED7C3CF14F0C4CF15F0120014509C
:101F58001602F3CF18F0F4CF19F014501702F3500B
:101F6800192615501602F350192618C014F019C076
:101F780015F0120001500302F3CF05F0F4CF06F07C
:101F880001500402F350062602500302F3500626BD
:101F980005C001F006C002F012001CC014F01DC0FC
:101FA80015F0166A8E0E176E000E186EADEC09F05D
:101FB80014C01CF015C01DF016C01EF01200156EDE
:101FC8008996155043EC0FF08988C80E00D0E82E8A
:101FD800FDD789981200026E8996025059EC0FF0CD
:101FE8008988C80E00D0E82EFDD789981200000E07
:101FF800E3EC0FF00F0EE3EC0FF01200040EE3EC2D
:102008000FF0000EE3EC0FF01200000EE3EC0FF0FF
:10201800020EE3EC0FF01200000EE3EC0FF00C0ED2
:10202800E3EC0FF01200000EE3EC0FF0010EE3EC0E
:102038000FF01200000EEFEC0FF00F0EEFEC0FF0A8
:102048001200000EEFEC0FF00C0EEFEC0FF0120088
:10205800000EEFEC0FF0010EEFEC0FF0120089BA52
:1020680002D0898A1200899A120042EC0EF0BCEC68
:082078000DF01200010002004E
:020000040020DA
:08000000FFFFFFFFFFFFFFFF00
:020000040030CA
:0E00000000091F1EFF8181FF0FC00FE00F409F
:00000001FF
