:0400000007EF00F016
:0A000800108210ED04F080EF05F007
:10080000005069657A6173206120636F6E74617254
:100810003A00477275706F20323A004269650000F5
:100820000600F2A059D0F00E8118D8B44CD0000EBA
:100830000C6EFE0E8A6E81B802D0010E41D081BAD4
:1008400002D0020E3DD081BC02D0030E39D081BE51
:1008500002D0040E35D0FD0E8A6E81B802D0050E8E
:100860002FD081BA02D0060E2BD081BC02D0070E49
:1008700027D081BE02D0080E23D0FB0E8A6E81B82D
:1008800002D0090E1DD081BA02D00A0E19D081BC47
:1008900002D00B0E15D081BE02D00C0E11D0F70E77
:1008A0008A6E81B802D00D0E0BD081BA02D00E0E26
:1008B00007D081BC02D00F0E03D081BE02D0100E33
:1008C0000C6EF00E8A6E210E016E760EE82EFED7AB
:1008D000012EFCD700D0F29010921100086E08C0D3
:1008E0000DF0000ECDEC05F00A0E076EBC0EE82EE2
:1008F000FED7072EFCD700D0030EC0EC05F0FA0E91
:1009000000D0E82EFDD7030EC0EC05F0FA0E00D0A3
:10091000E82EFDD7030EC0EC05F0FA0E00D0E82E4D
:10092000FDD7020EC0EC05F0FA0E00D0E82EFDD780
:10093000280EC0EC05F0110E076E3A0EE82EFED719
:10094000072EFCD700D00C0EC0EC05F0110E076E80
:100950003A0EE82EFED7072EFCD700D0010EC0ECD1
:1009600005F0110E076E3A0EE82EFED7072EFCD7C3
:1009700000D0060EC0EC05F0110E076E3A0EE82E00
:10098000FED7072EFCD700D01200800EC0EC05F079
:10099000030EE82EFED70000400EC0EC05F0030E5B
:1009A000E82EFED700004E0EC0EC05F0030EE82E38
:1009B000FED70000440EC0EC05F0030EE82EFED773
:1009C00000004E0EC0EC05F0030EE82EFED700002E
:1009D000550EC0EC05F0030EE82EFED70000440EC5
:1009E000C0EC05F0030EE82EFED700004A0EC0EC66
:1009F00005F0030EE82EFED700005B0EC0EC05F0FC
:100A0000030EE82EFED700001200F00E936E000ECB
:100A1000956E000E8A6E000E8C6EF19EF290F2863C
:100A2000F28EA30E0B6E550EE82EFED70B2EFCD7C2
:100A30000000DAEC05F011EC06F04E0E6EEC04F05E
:100A4000FFEC05F0040E076E010E40EC05F01B0EE6
:100A5000076E61EC05F0010E076E020E40EC05F02A
:100A6000120E076E61EC05F0C5EC04F0000EB3EC5D
:100A700005F007EC06F0FFEC05F093EC05F0FFD76E
:100A8000086E14D00750BF0FC0EC05F012000750DD
:100A9000930FC0EC05F012000750D30FC0EC05F027
:100AA000120007507F0FC0EC05F012000850020A38
:100AB000D8B4E8D7010AD8B4EAD7070AD8B4ECD733
:100AC000F0D7000E0A6E000E096E0DD007500924F3
:100AD000086E08C0F6FF080EF76E0800F550B3EC7C
:100AE00005F0094A0A2A07500924086E08C0F6FFD3
:100AF000080EF76E0800F5500009D8B41200E6D7CA
:100B00002A0EF66E0C0EF76E000EF86E0900F5CF89
:100B10000FF00E6A0D6A0C6A10901092000EF86EBB
:100B2000000105EF05F0010E076E010E40EC05F027
:100B3000010E076E61EC05F0010E076E020E40EC2F
:100B400005F0F7EC05F01200056E0E500512055089
:100B50000409CDEC05F00550FB0BCDEC05F0040EBF
:100B6000E82EFED71200066E010E0E6E0650F00B38
:100B7000A4EC05F00638F00BF00BA4EC05F0120025
:100B8000066E000E0E6E0650F00BA4EC05F0063853
:100B9000F00BF00BA4EC05F01200046E11EC06F063
:100BA0000D50E5EC05F004500F10E5EC05F00DECF0
:100BB00006F01200280EC66E000EC56E000EC76E3F
:100BC000040EC86E938293801200036EEEEC05F063
:100BD00003C0C9FF9EA6FED79E961200C7B4FED7DB
:100BE000C5CF02F01F0E0216D8B41200F7D70D0EB3
:100BF000C0EC05F0030EE82EFED700001200010E37
:100C0000C0EC05F0030EE82EFED700001200080E1F
:100C10000F6E000ECDEC05F01200EEEC05F0C58471
:0B0C20001200EEEC05F0C58012000889
:020000040020DA
:08000000FFFFFFFFFFFFFFFF00
:020000040030CA
:0E00000000091F1EFF8181FF0FC00FE00F409F
:00000001FF
