:04000000D7EF04F042
:0D08000000486F6C61206D756E646F000024
:10080E00076E07C00CF0000E11EC05F0270E066EF9
:10081E00F50EE82EFED7062EFCD70000030E04ECD4
:10082E0005F0070E066E7D0EE82EFED7062EFCD7BF
:10083E000000030E04EC05F0070E066E7D0EE82E8A
:10084E00FED7062EFCD70000030E04EC05F0070EB3
:10085E00066E7D0EE82EFED7062EFCD70000020E89
:10086E0004EC05F0070E066E7D0EE82EFED7062E62
:10087E00FCD70000280E04EC05F0410E066EEE0EBD
:10088E00E82EFED7062EFCD700D00C0E04EC05F099
:10089E00410E066EEE0EE82EFED7062EFCD700D0C9
:1008AE00010E04EC05F0410E066EEE0EE82EFED79C
:1008BE00062EFCD700D0060E04EC05F0410E066E97
:1008CE00EE0EE82EFED7062EFCD700D01200030E39
:1008DE000B6E8A0E0A6E560EE82EFED70A2EFCD727
:1008EE000B2EFAD71EEC05F04DEC05F0270E07EC9B
:1008FE0004F03BEC05F0010E066E010E97EC04F0D1
:10090E00010E066EB8EC04F043EC05F0010E066E17
:10091E00010E97EC04F0010E066EB8EC04F0F6D75B
:10092E00076E14D00650BF0F04EC05F012000650EF
:10093E00930F04EC05F012000650D30F04EC05F0F3
:10094E00120006507F0F04EC05F012000750020A49
:10095E00D8B4E8D7010AD8B4EAD7070AD8B4ECD786
:10096E00F0D7000E096E000E086E0DD0065008244A
:10097E00076E07C0F6FF080EF76E0800F550F7EC8D
:10098E0004F0084A092A06500824076E07C0F6FF2D
:10099E00080EF76E0800F5500009D8B41200E6D71D
:1009AE00A20EF66E0A0EF76E000EF86E0900F5CF67
:1009BE000EF00D6A0C6A000EF86E00016EEF04F078
:1009CE00046E0D5004120450040911EC05F004508D
:1009DE00FB0B11EC05F0100EE82EFED700D0120026
:1009EE00056E010E0D6E0550F00BE7EC04F00538A8
:1009FE00F00BF00BE7EC04F01200056E000E0D6E1E
:100A0E000550F00BE7EC04F00538F00BF00BE7ECBB
:100A1E0004F01200036E4DEC05F00C5029EC05F0BD
:100A2E0003500E1029EC05F049EC05F01200280ECB
:100A3E00C66E000EC56E000EC76E090EC86E93828E
:100A4E0093801200026E32EC05F002C0C9FF9EA622
:100A5E00FED79E961200C7B4FED7C5CF01F01F0E6B
:100A6E000116D8B41200F7D7010E04EC05F00D0EE6
:100A7E00E82EFED700001200000E0E6E000E11ECD6
:100A8E0005F0120032EC05F0C584120032EC05F0D0
:050A9E00C580120008F4
:020000040020DA
:08000000FFFFFFFFFFFFFFFF00
:020000040030CA
:0E000000000C1F1EFF8181FF0FC00FE00F409C
:00000001FF
