:0400000007EF00F016
:0A000800498294ED05F002EF0EF0BE
:100800000001000A006400E80310270F091C080219
:1008100007121E040E0A0A1F1B1F0003030207060D
:100820000E0A1304110E04040A11000A0A0A001128
:10083000110E0044697374616E636961203D202567
:100840006420636D200A50574D203D202575200AF5
:10085000004375656E74612066696E616C697A61CA
:100860006461005069657A6173206120636F6E7402
:1008700061723A004C61626F7261746F72696F20CD
:10088000303400456D657267656E63696120004DA7
:100890006963726F7320554E414C005049433138A3
:1008A00046343535300046616C74616E74653A00CB
:1008B0004F626A657469766F3A0050617261646173
:1008C00020646500413A6F6B20423A00413A4F4B39
:0908D00000233D5800433D0000E7
:1008DA00700ED36E030E0001A26F970EE82EFED79C
:1008EA00A22FFCD700D0010EC26E880EC06E000E79
:1008FA00966E000E956E010E926E020E946E000EAA
:10090A008C6E070E8D6E898A240EAC6E800EAB6ECD
:10091A00080EB86ECF0EAF6EF00E936E000E8A6E92
:10092A00F19E020E0001A36F040EA26FBA0EE82E0A
:10093A00FED7A22FFCD7A32FFAD700000B0ED76E33
:10094A00DC0ED66E040ED56EF294F28AD58EF29033
:10095A00F286F28EC150F00B0E09C16EF90ECB6E03
:10096A007D0EBE6E010ECA6E0C0EBD6E900ECD6E61
:10097A00000ECC6ECA84D9EC0CF03BEC11F02B0EB5
:10098A00196E000E60EC06F0230E196E010E60EC73
:10099A0006F01B0E196E020E60EC06F0130E196EAD
:1009AA00030E60EC06F00B0E196E040E60EC06F0F6
:1009BA0042EC11F050EC11F0010E186E010EDEEC53
:1009CA000AF0740E196E80EC0FF0010E186E020E0A
:1009DA00DEEC0AF09B0E196E80EC0FF00C0E186E0E
:1009EA00020EDEEC0AF034EC11F0030E0001A36FE4
:1009FA00080EA26F770EE82EFED7A22FFCD7A32FE0
:100A0A00FAD749EC11F0010E0001A86F50EC11F071
:100A1A00010E186E010EDEEC0AF08F0E196E80ECD4
:100A2A000FF0010E186E020EDEEC0AF0000EBEEC9C
:100A3A000FF0070E186E020EDEEC0AF0010EBEEC85
:100A4A000FF00001A851020F186E020EDEEC0AF038
:100A5A00020EBEEC0FF00B0E0001A36F260EA26F62
:100A6A005D0EE82EFED7A22FFCD7A32FFAD700D00F
:100A7A000001A82B050EA865C9D750EC11F0B6ECF9
:100A8A000EF0000EBAEC10F015C0A9F016C0AAF0CC
:100A9A00A9C01DF0AAC01EF0F3EC10F01DC09CF016
:100AAA001EC09DF01FC09EF07EEC0BF019EC0DF0FD
:100ABA000001A76F750E216E330E226EA7C023F0B8
:100ACA00246AA9C025F0AAC026F01AEC07F0000192
:100ADA00A751A26FA36BA46BA2C01BF0A3C01CF00A
:100AEA00A4C01DF0B3EC09F0020E47184810D8A4B0
:100AFA0008D00001A65105E1090EA55DD8A0C7ECF2
:100B0A0007F00B0E0001A36F260EA26F5D0EE82EF2
:100B1A00FED7A22FFCD7A32FFAD700D0B2D7060050
:100B2A00D9CF0DF0DACF0EF0F3CF0FF0F4CF10F0EB
:100B3A00F6CF11F0F7CF12F0F8CF13F0F5CF14F08B
:100B4A00F2A08DD0000173517411D8B488D0F00E80
:100B5A008118D8B477D0000E446EFE0E8A6E81B822
:100B6A0004D0310E36EC0EF06BD081BA04D0320EBE
:100B7A0036EC0EF065D081BC04D0330E36EC0EF0A4
:100B8A005FD081BE08D0020E47184810D8B403D0EF
:100B9A00A6EC10F055D0FD0E8A6E81B804D0340E42
:100BAA0036EC0EF04DD081BA04D0350E36EC0EF08C
:100BBA0047D081BC04D0360E36EC0EF041D081BE4F
:100BCA0007D047044810D8A403D08FEC0EF038D0D1
:100BDA00FB0E8A6E81B804D0370E36EC0EF030D098
:100BEA0081BA04D0380E36EC0EF02AD081BC04D07B
:100BFA00390E36EC0EF024D081BE08D0020E47180A
:100C0A004810D8A403D02CEC10F01AD0F70E8A6E34
:100C1A0081B803D06CEC11F013D081BA04D0300E35
:100C2A0036EC0EF00DD081BC08D0020E47184810E1
:100C3A00D8A403D072EC11F003D081AE3EEC0FF0D1
:100C4A00F00E8A6E030E0C6E080E0B6E770EE82EEF
:100C5A00FED70B2EFCD70C2EFAD70000F290F2A486
:100C6A0018D0F2940B0ED76EDC0ED66E89B202D073
:100C7A00898201D0899261EC10F04304D8A402D091
:100C8A00422A02D0000E426E010E426402D0000EC9
:100C9A00436E14C0F5FF13C0F8FF12C0F7FF11C06E
:100CAA00F6FF10C0F4FF0FC0F3FF0EC0DAFF0DC04D
:100CBA00D9FF499211001B6E9ED0000E1C6E19506E
:100CCA001C241A6E1AC0F6FF080EF76E0800F550BB
:100CDA00BEEC0FF01C2A070E1C64F1D71200080E96
:100CEA001D6E19501D241A6EF80E1A261AC0F6FF28
:100CFA00080EF76E0800F550BEEC0FF01D2A0F0E15
:100D0A001D64EFD71200100E1E6E19501E241A6EA3
:100D1A00F00E1A261AC0F6FF080EF76E0800F550F4
:100D2A00BEEC0FF01E2A170E1E64EFD71200180E23
:100D3A001F6E19501F241A6EE80E1A261AC0F6FFE3
:100D4A00080EF76E0800F550BEEC0FF01F2A1F0EB2
:100D5A001F64EFD71200200E206E195020241A6E3D
:100D6A00E00E1A261AC0F6FF080EF76E0800F550B4
:100D7A00BEEC0FF0202A270E2064EFD71200280EAF
:100D8A00216E195021241A6ED80E1A261AC0F6FF9F
:100D9A00080EF76E0800F550BEEC0FF0212A2F0E50
:100DAA002164EFD71200300E226E195022241A6ED7
:100DBA00D00E1A261AC0F6FF080EF76E0800F55074
:100DCA00BEEC0FF0222A370E2264EFD71200380E3B
:100DDA00236E195023241A6EC80E1A261AC0F6FF5B
:100DEA00080EF76E0800F550BEEC0FF0232A3F0EEE
:100DFA002364EFD712001B50000AD8B45ED7010A49
:100E0A00D8B46DD7030AD8B47ED7010AD8B48FD71D
:100E1A00070AD8B4A0D7010AD8B4B1D7030AD8B4FC
:100E2A00C2D7010AD8A41200D2D7230E296E98D0AD
:100E3A00250E2D18D8B407D02150D96EDA6A2DC0E4
:100E4A00DFFF212A8DD0000E2A6E02D02A8C18D0FC
:100E5A00222A2204276E27C0F6FF080EF76E080022
:100E6A00F5CF2DF02D50000AD8B487D0640AD8B433
:100E7A0007D00D0AD8B404D01C0AD8B4E7D770D06A
:100E8A002ABC12D02950D96EDA6ADECF2BF0DDCF18
:100E9A002CF0020E29262CAE10D0030E2A122B6C2F
:100EAA002C1ED8B02C2A09D02950D96EDA6ADECF86
:100EBA002BF0DDCF2CF0020E2926010E2D6E2D50BF
:100ECA00020DF350010F276E27C0F6FF080EF76ECA
:100EDA000900F5502B5C0900F5502C58D8A005D014
:100EEA002D2A050E2D18D8A4EAD72AC027F0030EFA
:100EFA002716D8B406D02150D96EDA6A2D0EDF6EC5
:100F0A00212A2DC028F028D02850020DF350010FB5
:100F1A00276E27C0F6FF080EF76E0900F5CF17F007
:100F2A000A00F5CF18F02BC015F02CC016F066ECAD
:100F3A000EF015C01CF016C01DF0000E1F6E0A0E32
:100F4A001E6EFCEC0EF01C50300F2D6E2150D96E27
:100F5A00DA6A2DC0DFFF212A28062828D8A4D4D788
:100F6A00222A2204276E27C0F6FF080EF76E080011
:100F7A00F5CF2DF02D50D8A45BD72150D96EDA6A5F
:100F8A00DF6A120040C015F041C016F0000E186E5C
:100F9A000A0E176ECDEC10F03E5015243C6E3F50F1
:100FAA0016203D6E3A4A3B2A3A503C5C1D6E3B5035
:100FBA003D581E6E010E1D24386E000E1E20396E1D
:100FCA0038C015F039C016F0000E186E0A0E176EEA
:100FDA0092EC0DF0300E1524366E000E1620376E88
:100FEA0038C015F039C016F0000E186E0A0E176ECA
:100FFA0055EC0CF0300E1524346E000E1620356EAA
:10100A00FF0E3A24156EFF0E3B20166E000E186E68
:10101A000A0E176E92EC0DF015C032F016C033F0BE
:10102A00FF0E3A24156EFF0E3B20166E000E186E48
:10103A000A0E176E55EC0CF015C0ABF016C0ACF0EA
:10104A0032C08CFF0001AB51020DF350600FD96E14
:10105A00DA6ADF508D6ECBEC0BF00B0E1E6E260E8D
:10106A001D6E5E0EE82EFED71D2EFCD71E2EFAD759
:10107A0038503910D8A412001DEC0FF0F6EC0FF01E
:10108A00120040C001F041C002F0000E046E0A0EC8
:10109A00036EE0EC10F03E5001243C6E3F500220FB
:1010AA003D6E3A4A3B2A3A503C5C096E3B503D58E9
:1010BA000A6E010E0924386E000E0A20396E38C0F5
:1010CA0001F039C002F0000E046E0A0E036ECAEC7B
:1010DA000DF0300E0124366E000E0220376E38C035
:1010EA0001F039C002F0000E046E0A0E036E97EC8E
:1010FA000CF0300E0124346E000E0220356EFF0E05
:10110A003A24016EFF0E3B20026E000E046E0A0E98
:10111A00036ECAEC0DF001C032F002C033F0FF0ECC
:10112A003A24016EFF0E3B20026E000E046E0A0E78
:10113A00036E97EC0CF001C0ABF002C0ACF032C009
:10114A008CFF0001AB51020DF350600FD96EDA6AC1
:10115A00DF508D6E10EC0CF00B0E0A6E260E096E27
:10116A005E0EE82EFED7092EFCD70A2EFAD7385083
:10117A003910D8A412005FEC0FF011EC10F0120035
:10118A002EC093F00001946B956B2D34933701E3D5
:10119A0094819351966F9651D8A407D0000E2C6E65
:1011AA00000E2D6E000E2E6E120031C093F0946B5D
:1011BA00956B3034933701E3948193519B6F9B5124
:1011CA00D8A407D0000E2C6E000E2D6E000E2E6EC7
:1011DA0012009B517B0F96272EC09BF031509B1B10
:1011EA00800E9B172D8E308EFF0E2F16FF0E301697
:1011FA00000E3116000E976F000E986F000E996F51
:10120A00070E9A6F2CA006D02F509727305098239C
:10121A0031509923D8902E322D322C32D8902F3635
:10122A00303631369A2FEED7090E9A6F2CA006D097
:10123A002F5097273050982331509923D8902E3227
:10124A002D322C32D8909933983397339A2FEED780
:10125A0097C015F098C016F099C017F096C018F00C
:10126A009BC019F087EC0AF015C02CF016C02DF0BF
:10127A0017C02EF012001FC023F0246A256A1E34FC
:10128A00233601E3248023502A6E2A50D8A407D09B
:10129A00000E1D6E000E1E6E000E1F6E120022C082
:1012AA0023F0246A256A2134233601E3248023505B
:1012BA002B6E2B50D8A407D0000E1D6E000E1E6E8A
:1012CA00000E1F6E1200000E276E000E286E000E12
:1012DA00296E2B50890F2A5E1FC02BF022502B1A21
:1012EA00800E2B161E8EFF0E1D16FF0E1E16000EEA
:1012FA001F16218EFF0E2016FF0E2116000E221633
:10130A00180E266ED89027362836293620501D5CAE
:10131A0021501E5822501F58D8A007D020501D5EB9
:10132A0021501E5A22501F5A2780D8901D361E3629
:10133A001F36262EE7D727C015F028C016F029C079
:10134A0017F02AC018F02BC019F087EC0AF015C064
:10135A001DF016C01EF017C01FF0120006D0010EB5
:10136A001B26000E1C22000E1D221BC0F6FF1CC0ED
:10137A00F7FF1DC0F8FF0800F550200AD8B4EFD7D0
:10138A001BC0F6FF1CC0F7FF1DC0F8FF0800F55090
:10139A00090AD8B4E4D7000E1F6E000E1E6E000EA6
:1013AA00206E1BC0F6FF1CC0F7FF1DC0F8FF080027
:1013BA00F5502D0AD8A408D0202A010E1B26000EAB
:1013CA001C22000E1D2228D01BC0F6FF1CC0F7FFEE
:1013DA001DC0F8FF0800F5502B0AD8B4EED71CD070
:1013EA001EC015F01FC016F0000E186E0A0E176EFA
:1013FA00CDEC10F01BC0F6FF1CC0F7FF1DC0F8FFB4
:10140A000800F5501526000E1622D00E15241E6E61
:10141A00FF0E16201F6ED1D71BC0F6FF1CC0F7FFA8
:10142A001DC0F8FF0800F55025EC11F0D8A01200F5
:10143A00D7D717C019F01A6A1B6A1634193601E38E
:10144A001A801950236E2350D8A409D0000E156EA5
:10145A00000E166E000E176E000E186E1200170E92
:10146A00196E15C01AF016C01BF017C01CF0192807
:10147A001D6E04D0D8901C321B321A321D2EFAD798
:10148A001A501E6E168EFF0E1516FF0E1616000E39
:10149A00171615501F6E1650206E1750216E226AAD
:1014AA008E0E235E23AE0DD02350800A8F0FD8A054
:1014BA00CDD7D8902232213220321F32233EF9D79B
:1014CA000DD0170E236407D0C1D7D8901F36203607
:1014DA002136223623062350D8A4F7D71E50D8B473
:1014EA0008D0221E211E201E1F6C000E202221223F
:1014FA0022221FC015F020C016F021C017F022C00A
:10150A0018F012001850D8B405D01550161017103C
:10151A00D8A40CD0000E156E000E166E000E176EB3
:10152A001200182AD890173216321532000E1514E6
:10153A001A6E000E16141B6EFE0E17141C6E1A502D
:10154A001B101C10D8B40CD0ECD7182A010E152683
:10155A00000E1622000E1722D890173216321532B4
:10156A00000E15141A6E000E16141B6EFF0E1714B9
:10157A001C6E1A501B101C10D8B406D0E6D71806D9
:10158A00D89015361636173616BE03D0020E1860D6
:10159A00F6D718A0169ED89018321850171219505C
:1015AA00D8A4178E15C015F016C016F017C017F07C
:1015BA001200196E1904D8A410D018507F0F1C6E8F
:1015CA001C380F0B1A6E1C500F0B1B6E1A5005ECB1
:1015DA0011F01B5005EC11F01200020E1918D8A4D4
:1015EA0010D01850BF0F1C6E1C380F0B1A6E1C50EF
:1015FA000F0B1B6E1A5005EC11F01B5005EC11F085
:10160A001200030E1918D8A410D01850930F1C6E8C
:10161A001C380F0B1A6E1C500F0B1B6E1A5005EC60
:10162A0011F01B5005EC11F01200040E1918D8A481
:10163A0012001850D30F1C6E1C380F0B1A6E1C5058
:10164A000F0B1B6E1A5005EC11F01B5005EC11F034
:10165A001200056E0504D8A410D004507F0F086E3E
:10166A0008380F0B066E08500F0B076E065015EC64
:10167A0011F0075015EC11F01200020E0518D8A44B
:10168A0010D00450BF0F086E08380F0B066E0850B2
:10169A000F0B076E065015EC11F0075015EC11F000
:1016AA001200030E0518D8A410D00450930F086E28
:1016BA0008380F0B066E08500F0B076E065015EC14
:1016CA0011F0075015EC11F01200040E0518D8A4F9
:1016DA0012000450D30F086E08380F0B066E08501C
:1016EA000F0B076E065015EC11F0075015EC11F0B0
:1016FA001200000E206E800E216E440E226E9CC0D7
:10170A001DF09DC01EF09EC01FF040EC09F01DC0E8
:10171A002CF01EC02DF01FC02EF0000E2F6E790E79
:10172A00306E430E316EC5EC08F02CC09FF02DC010
:10173A00A0F02EC0A1F09FC015F0A0C016F0A1C065
:10174A0017F0000E186E790E196E430E1A6E58ECC9
:10175A000DF0D8A007D0000E00019F6F790EA06F80
:10176A00430E08D00001A1AF06D0000E9F6F000EF5
:10177A00A06F000EA16F9FC015F0A0C016F0A1C007
:10178A0017F01EEC0AF01550BE6E1200000E486EDD
:10179A00020E476E000EAE6F010EAD6F50EC11F0E7
:1017AA0049EC11F0010E186E010EDEEC0AF0A60EDD
:1017BA00196E80EC0FF03450BEEC0FF03650BEECD0
:1017CA000FF00E0E186E010EDEEC0AF0D50E196E31
:1017DA0080EC0FF0040EBEEC0FF0010E186E020E34
:1017EA00DEEC0AF0B00E196E80EC0FF04050300FAC
:1017FA00BEEC0FF03E50300FBEEC0FF00E0E186E1E
:10180A00020EDEEC0AF0D10E196E80EC0FF0030E18
:10181A00BEEC0FF01200000E486E020E476E000E6C
:10182A00AE6F010EAD6F65EC11F05EEC11F0010EBA
:10183A00046E010E2EEC0BF0A60E056E9FEC0FF057
:10184A003450DAEC0FF03650DAEC0FF00E0E046E6C
:10185A00010E2EEC0BF0D50E056E9FEC0FF0040E68
:10186A00DAEC0FF0010E046E020E2EEC0BF0B00E45
:10187A00056E9FEC0FF04050300FDAEC0FF03E503F
:10188A00300FDAEC0FF00E0E046E020E2EEC0BF097
:10189A00D10E056E9FEC0FF0030EDAEC0FF012007A
:1018AA00000E1A6E18AE06D0176C181ED8B0182A79
:1018BA00010E1A6E16AE06D0156C161ED8B0162A70
:1018CA00010E1A1A000E1C6E000E1B6E175018100D
:1018DA00D8B41CD0010E196E04D0D8901736183619
:1018EA00192A18AEFAD7D8901B361C361750155C31
:1018FA0018501658D8A005D01750155E1850165A09
:10190A001B80D89018321732192EEDD71A50D8B436
:10191A0004D01B6C1C1ED8B01C2A1BC015F01CC09E
:10192A0016F01200000E066E04AE06D0036C041EFA
:10193A00D8B0042A010E066E02AE06D0016C021E51
:10194A00D8B0022A010E061A000E086E000E076EA3
:10195A0003500410D8B41CD0010E056E04D0D890E0
:10196A0003360436052A04AEFAD7D8900736083665
:10197A000350015C04500258D8A005D00350015E00
:10198A000450025A0780D89004320332052EEDD74C
:10199A000650D8B404D0076C081ED8B0082A07C06D
:1019AA0001F008C002F01200929692989598959AC2
:1019BA00959C959E000E7AEC10F0340E186EF20E7D
:1019CA00E82EFED7182EFCD7030E05EC11F00D0EEB
:1019DA00186EFC0EE82EFED7182EFCD7030E05EC67
:1019EA0011F01D0E186E910EE82EFED7182EFCD798
:1019FA000000030E05EC11F0020E05EC11F0020EC8
:101A0A0005EC11F0080E05EC11F0000E05EC11F0D2
:101A1A000C0E05EC11F0000E05EC11F0060E05ECAB
:101A2A0011F050EC11F01200040EBA6EA190000EE3
:101A3A00BC6E000EBB6E8280060EE82EFED700D06A
:101A4A008290000ECF6E000ECE6E010E436E82B2F1
:101A5A0003D04304D8B4FBD74350D8A402D0000E15
:101A6A001200CD80A1B002D09EA0FCD7CD909EA03E
:101A7A0002D01C6816D08C0EBB5C390EBC58D8A09C
:101A8A0004D0390EBC6E8C0EBB6EBBCF15F0BCCF2A
:101A9A0016F0000E186E3A0E176E66EC0EF0152848
:101AAA001C6E1C50120017AE0FD0000E1B6E000EDB
:101ABA001C6E800E1D6E15501B5C156E16501C5840
:101ACA00166E17501D58176E1AAE0FD0000E1B6EE9
:101ADA00000E1C6E800E1D6E18501B5C186E19507D
:101AEA001C58196E1A501D581A6E000E151A000E3F
:101AFA00161A800E171A000E181A000E191A800EDE
:101B0A001A1A1850155C195016581A501758D8B086
:101B1A0002D0D8901200D8801200000E1A6E16AEAB
:101B2A0006D0156C161ED8B0162A010E1A6E18AEFB
:101B3A0004D0176C181ED8B0182A17501810D8B429
:101B4A0018D0010E196E04D0D89017361836192AF3
:101B5A0018AEFAD71750155C18501658D8A004D0EA
:101B6A001750155E1850165AD89018321732192E77
:101B7A00F1D71A50D8B404D0156C161ED8B0162A4C
:101B8A0015C015F016C016F01200000E066E02AE51
:101B9A0006D0016C021ED8B0022A010E066E04AEEF
:101BAA0004D0036C041ED8B0042A03500410D8B41D
:101BBA0018D0010E056E04D0D89003360436052AD3
:101BCA0004AEFAD70350015C04500258D8A004D0DE
:101BDA000350015E0450025AD89004320332052E93
:101BEA00F1D70650D8B404D0016C021ED8B0022A2C
:101BFA0001C001F002C002F012008E0EF66E200E35
:101C0A00F76E000EF86E00EE60F010EE33F0090089
:101C1A00F5CFEEFFE550E150FAE1EE0EF66E220E38
:101C2A00F76E000EF86E00EE45F010EE04F00900B3
:101C3A00F5CFEEFFE550E150FAE10001AE6BAD6B76
:101C4A00AC6BAB6BAA6BA96B00EE32F0130EEE6AAB
:101C5A00E806FDE149904992000EF86E00016DEF29
:101C6A0004F0066E45044610D8A41AD006C005F042
:101C7A000F0E05160550406E416A41BE0AD041500A
:101C8A0004E1060E405CD8A004D0000E416E050E99
:101C9A00406E4050300FDAEC0FF0454A462A1200E7
:101CAA00020E45184610D8A4120006C005F00F0E01
:101CBA00051605503E6E3F6A3E50300FDAEC0FF0C3
:101CCA00ECD7000E1B6E000E1A6E17501810D8B4FF
:101CDA001CD0010E196E04D0D89017361836192A5E
:101CEA0018AEFAD7D8901A361B361750155C18500A
:101CFA001658D8A005D01750155E1850165A1A80D3
:101D0A00D89018321732192EEDD71AC015F01BC009
:101D1A0016F0120045044610D8B412004504046EA9
:101D2A00020E2EEC0BF0200EDAEC0FF04504046ED6
:101D3A00020E2EEC0BF04506D8A0460645044610C6
:101D4A00D8A405D0000E416E000E406E1200020E9D
:101D5A0045184610D8A41200000E3F6E000E3E6EC3
:101D6A001200000E486E010E476E50EC11F0010E83
:101D7A00186E010EDEEC0AF0630E196E80EC0FF09D
:101D8A00090E186E020EDEEC0AF0C40E196E80EC13
:101D9A000FF07F0EBEEC0FF0010E186E020EDEEC95
:101DAA000AF034EC11F01200000E486E010E476E74
:101DBA0065EC11F0010E046E010E2EEC0BF0630EB1
:101DCA00056E9FEC0FF0090E046E020E2EEC0BF05E
:101DDA00C40E056E9FEC0FF07F0EDAEC0FF0010EC9
:101DEA00046E020E2EEC0BF057EC11F012001E508E
:101DFA001F10D8B418D0010E206E04D0D8901E3609
:101E0A001F36202A1FAEFAD71E501C5C1F501D58C1
:101E1A00D8A004D01E501C5E1F501D5AD8901F32E5
:101E2A001E32202EF1D71CC01CF01DC01DF012005E
:101E3A00000E3F6E000E3E6E000E3F6E000E3E6EAE
:101E4A00300E3E24366E000E3F20376E300E3E2492
:101E5A00346E000E3F20356E000E8C6E60C08DFF12
:101E6A00000E3B6E000E3A6E000E466E010E456E77
:101E7A00120065EC11F05EEC11F0010E046E010E19
:101E8A002EEC0BF0BA0E056E9FEC0FF0010E046EED
:101E9A00020E2EEC0BF0830E056E9FEC0FF0030E74
:101EAA00DAEC0FF0000E0001746F000E736F6FC052
:101EBA008DFF1200000E3F6E000E3E6E000E3F6E4A
:101ECA00000E3E6E300E3E24366E000E3F20376EF8
:101EDA00300E3E24346E000E3F20356E000E8C6E9E
:101EEA0060C08DFF000E3B6E000E3A6E000E466E0D
:101EFA00010E456E1200000E1C6E000E1B6E0DD0F8
:101F0A0019501B241A6E1AC0F6FF080EF76E080045
:101F1A00F550BEEC0FF01B4A1C2A19501B241A6EEE
:101F2A001AC0F6FF080EF76E0800F5500009D8B47B
:101F3A001200E6D7000E086E000E076E0DD005508F
:101F4A000724066E06C0F6FF080EF76E0800F55065
:101F5A00DAEC0FF0074A082A05500724066E06C075
:101F6A00F6FF080EF76E0800F5500009D8B4120003
:101F7A00E6D7186E18500F0B166E1850F00B176E26
:101F8A00898617380F0B7AEC10F089881A0EE82E1A
:101F9A00FED700D0899816507AEC10F089881A0E6C
:101FAA00E82EFED700D089981200046E04500F0B59
:101FBA00026E0450F00B036E898603380F0B90EC07
:101FCA0010F089881A0EE82EFED700D089980250A0
:101FDA0090EC10F089881A0EE82EFED700D0899866
:101FEA001200000E486E030E476E50EC11F049ECD9
:101FFA0011F0010E186E010EDEEC0AF0510E196E88
:10200A0080EC0FF00D0E186E020EDEEC0AF0CC0E0C
:10201A00196E80EC0FF01200000E486E030E476E28
:10202A0065EC11F05EEC11F0010E046E010E2EEC5F
:10203A000BF0510E056E9FEC0FF00D0E046E020EA2
:10204A002EEC0BF0CC0E056E9FEC0FF01200300E4A
:10205A003E24366E000E3F20376E300E4024346E1A
:10206A00000E4120356E000E8C6E60C08DFF000E92
:10207A003B6E000E3A6E000E466E010E456E10EC77
:10208A000CF0120002000600040005000100000026
:10209A008FC2410300FF030100496E696369616EE3
:1020AA00646F000000000000000000000000000053
:0720BA00000000000000001F
:1020C200000E026E000E016E0AD0ACA2FED70150C5
:1020D200750FD96EDA6ADF50AD6E014A022A0150DD
:1020E200750FD96EDA6ADF50D8A4EFD70A0EAD6E3B
:1020F2001200156E15A002D08C8801D08C9815A202
:1021020002D08C8A01D08C9A15A402D08C8C01D07A
:102112008C9C15A602D08C8E12008C9E1200016E31
:1021220001A002D08C8801D08C9801A202D08C8AA6
:1021320001D08C9A01A402D08C8C01D08C9C01A677
:1021420002D08C8E12008C9E120047044810D8A434
:1021520003D046EC08F01200020E47184810D8B41B
:102162001200030E47184810D8A41200D9EC0EF042
:102172001200186E18C017F0D8901736D89017367C
:10218200C250030B1710C26EC282C2B2FED7C3CFB7
:1021920015F0C4CF16F0120015501702F3CF19F044
:1021A200F4CF1AF015501802F3501A2616501702DF
:1021B200F3501A2619C015F01AC016F01200015079
:1021C2000302F3CF05F0F4CF06F001500402F350FE
:1021D200062602500302F350062605C001F006C08F
:1021E20002F012001DC015F01EC016F0176A8E0E06
:1021F200186E000E196E87EC0AF015C01DF016C09D
:102202001EF017C01FF01200176E899617507AEC55
:1022120010F089880B0E166E620EE82EFED7162E6F
:10222200FCD700D089981200036E8996035090EC77
:1022320010F089880B0E026E620EE82EFED7022E77
:10224200FCD700D089981200176E000E166E3A0E57
:10225200176005D02F0E176402D0010E166E16C03D
:1022620015F015301200000E05EC11F00F0E05EC02
:1022720011F01200040E05EC11F0000E05EC11F045
:102282001200000E05EC11F0020E05EC11F0120026
:10229200000E05EC11F00C0E05EC11F01200000E10
:1022A20005EC11F0010E05EC11F01200000E15EC18
:1022B20011F00F0E15EC11F01200000E15EC11F0DA
:1022C2000C0E15EC11F01200000E15EC11F0010EBF
:1022D20015EC11F0120089BA02D0898A1200899A8B
:1022E20012005FEC0FF0D9EC0EF0120001000200B8
:020000040020DA
:08000000FFFFFFFFFFFFFFFF00
:020000040030CA
:0E00000000091F1EFF8181FF0FC00FE00F409F
:00000001FF
