:04000000C3EF04F056
:0D08000000486F6C61206D756E646F000024
:10080E00076E07C00AF0000EFDEC04F0270E066E10
:10081E00F50EE82EFED7062EFCD70000030EF0ECE8
:10082E0004F0070E066E7D0EE82EFED7062EFCD7C0
:10083E000000030EF0EC04F0070E066E7D0EE82E9F
:10084E00FED7062EFCD70000030EF0EC04F0070EC8
:10085E00066E7D0EE82EFED7062EFCD70000020E89
:10086E00F0EC04F0070E066E7D0EE82EFED7062E77
:10087E00FCD70000280EF0EC04F0410E066EEE0ED2
:10088E00E82EFED7062EFCD700D00C0EF0EC04F0AE
:10089E00410E066EEE0EE82EFED7062EFCD700D0C9
:1008AE00010EF0EC04F0410E066EEE0EE82EFED7B1
:1008BE00062EFCD700D0060EF0EC04F0410E066EAC
:1008CE00EE0EE82EFED7062EFCD700D01200076ED5
:1008DE0014D00650BF0FF0EC04F012000650930F28
:1008EE00F0EC04F012000650D30FF0EC04F01200FE
:1008FE0006507F0FF0EC04F012000750020AD8B435
:10090E00E8D7010AD8B4EAD7070AD8B4ECD7F0D79B
:10091E00000E096E000E086E0DD006500824076EEC
:10092E0007C0F6FF080EF76E0800F550E3EC04F072
:10093E00084A092A06500824076E07C0F6FF080E5B
:10094E00F76E0800F5500009D8B41200E6D70AEC8D
:10095E0005F039EC05F0270E07EC04F027EC05F056
:10096E00010E066E010E6EEC04F0010E066E8FEC9B
:10097E0004F02FEC05F0FFD77A0EF66E0A0EF76E26
:10098E00000EF86E0900F5CF0CF00B6A0A6A000E25
:10099E00F86E0001AEEF04F0046E0B50041204501A
:1009AE000409FDEC04F00450FB0BFDEC04F0100EFA
:1009BE00E82EFED700D01200056E010E0B6E05500C
:1009CE00F00BD3EC04F00538F00BF00BD3EC04F085
:1009DE001200056E000E0B6E0550F00BD3EC04F0FA
:1009EE000538F00BF00BD3EC04F01200036E39EC6B
:1009FE0005F00A5015EC05F003500C1015EC05F03F
:100A0E0035EC05F01200270EC66E000EC56E000EF8
:100A1E00C76E130EC86E938293801200026E1EEC88
:100A2E0005F002C0C9FF9EA6FED79E961200C7B45F
:100A3E00FED7C5CF01F01F0E0116D8B41200F7D79E
:100A4E00010EF0EC04F00D0EE82EFED700001200A1
:100A5E00000E0C6E000EFDEC04F012001EEC05F004
:0D0A6E00C58412001EEC05F0C580120008C2
:020000040020DA
:08000000FFFFFFFFFFFFFFFF00
:020000040030CA
:0E000000000C1F1EFF8181FF0FC00FE00F409C
:00000001FF
