:040000003AEF05F0DE
:10080000005069657A6173206120636F6E74617254
:100810003A00477275706F20323A004269650000F5
:10082000076E07C00CF0000E74EC05F0270E066E84
:10083000F50EE82EFED7062EFCD70000030E67EC5F
:1008400005F0070E066E7D0EE82EFED7062EFCD7AD
:100850000000030E67EC05F0070E066E7D0EE82E15
:10086000FED7062EFCD70000030E67EC05F0070E3E
:10087000066E7D0EE82EFED7062EFCD70000020E77
:1008800067EC05F0070E066E7D0EE82EFED7062EED
:10089000FCD70000280E67EC05F0410E066EEE0E48
:1008A000E82EFED7062EFCD700D00C0E67EC05F024
:1008B000410E066EEE0EE82EFED7062EFCD700D0B7
:1008C000010E67EC05F0410E066EEE0EE82EFED727
:1008D000062EFCD700D0060E67EC05F0410E066E22
:1008E000EE0EE82EFED7062EFCD700D01200800EAA
:1008F00067EC05F00D0EE82EFED70000400E67EC09
:1009000005F00D0EE82EFED700004E0E67EC05F048
:100910000D0EE82EFED70000440E67EC05F00D0E1C
:10092000E82EFED700004E0E67EC05F00D0EE82E07
:10093000FED70000550E67EC05F00D0EE82EFED731
:100940000000440E67EC05F00D0EE82EFED7000007
:100950004A0E67EC05F00D0EE82EFED700005B0E88
:1009600067EC05F00D0EE82EFED700001200030E16
:100970000B6E8A0E0A6E560EE82EFED70A2EFCD794
:100980000B2EFAD781EC05F0B8EC05F04E0E10EC0A
:1009900004F0A6EC05F0040E066E010EE9EC04F07E
:1009A0001B0E066E0AEC05F0010E066E020EE9EC57
:1009B00004F0120E066E0AEC05F077EC04F0000E5F
:1009C0005AEC05F0AEEC05F0A6EC05F029EC05F0CC
:1009D000FFD7076E14D00650BF0F67EC05F012006A
:1009E0000650930F67EC05F012000650D30F67EC2A
:1009F00005F0120006507F0F67EC05F0120007505B
:100A0000020AD8B4E8D7010AD8B4EAD7070AD8B49A
:100A1000ECD7F0D7000E096E000E086E0DD0065010
:100A20000824076E07C0F6FF080EF76E0800F550A1
:100A30005AEC05F0084A092A06500824076E07C038
:100A4000F6FF080EF76E0800F5500009D8B4120042
:100A5000E6D7010E066E010EE9EC04F0010E066EFB
:100A60000AEC05F0010E066E020EE9EC04F09EECB5
:100A700005F01200780EF66E0B0EF76E000EF86E93
:100A80000900F5CF0EF00D6A0C6A000EF86E000139
:100A9000B7EF04F0046E0D5004120450040974EC16
:100AA00005F00450FB0B74EC05F0100EE82EFED799
:100AB00000D01200056E010E0D6E0550F00B4AECD1
:100AC00005F00538F00BF00B4AEC05F01200056E4E
:100AD000000E0D6E0550F00B4AEC05F00538F00BDA
:100AE000F00B4AEC05F01200036EB8EC05F00C5068
:100AF0008CEC05F003500E108CEC05F0B4EC05F016
:100B00001200280EC66E000EC56E000EC76E090ECE
:100B1000C86E938293801200026E95EC05F002C0BD
:100B2000C9FF9EA6FED79E961200C7B4FED7C5CFBA
:100B300001F01F0E0116D8B41200F7D70D0E67ECA6
:100B400005F00D0EE82EFED700001200010E67EC36
:100B500005F00D0EE82EFED700001200080E0E6EF6
:100B6000000E74EC05F0120095EC05F0C58412003F
:090B700095EC05F0C580120008A7
:020000040020DA
:08000000FFFFFFFFFFFFFFFF00
:020000040030CA
:0E000000000C1F1EFF8181FF0FC00FE00F409C
:00000001FF
